:020000040800F2
:10000000A0060020D10100082520000827200008B4
:100010002B2000082F2000083320000800000000DB
:100020000000000000000000000000003720000871
:1000300039200008000000003B2000083D20000897
:10004000EB010008EB010008EB010008EB010008E0
:10005000EB010008EB01000831250008EB01000866
:10006000EB010008C9250008EB010008EB010008BE
:10007000EB010008EB010008EB010008EB010008B0
:10008000EB010008EB010008EB010008EB010008A0
:10009000EB010008EB010008EB0100089B250008BC
:1000A000EB010008EB010008EB010008EB01000880
:1000B000EB01000873260008EB010008EB010008C3
:1000C000EB010008EB010008EB010008EB01000860
:1000D000EB010008EB010008EB010008EB01000850
:1000E0006D250008EB010008EB010008EB0100089A
:1000F000EB010008EB010008EB010008EB01000830
:10010000EB010008EB010008EB010008EB0100081F
:10011000EB010008EB010008EB010008EB0100080F
:10012000EB010008EB010008EB010008EB010008FF
:1001300000F002F800F03CF80AA090E8000C8244BD
:100140008344AAF10107DA4501D100F031F8AFF29A
:10015000090EBAE80F0013F0010F18BFFB1A43F0A5
:1001600001031847FC3A00001C3B0000103A24BF72
:1001700078C878C1FAD8520724BF30C830C144BF0C
:1001800004680C607047000000230024002500264E
:10019000103A28BF78C1FBD8520728BF30C148BFEA
:1001A0000B6070471FB502F0F9FF1FBD10B510BD01
:1001B00002F073FF1146FFF7F5FF01F0B5FE02F004
:1001C00091FF03B4FFF7F2FF03BC02F09BFF0000B6
:1001D0000948804709480047FEE7FEE7FEE7FEE7DB
:1001E000FEE7FEE7FEE7FEE7FEE7FEE70448054917
:1001F000054A064B7047000009210008310100083C
:10020000A0000020A0060020A0020020A0020020E4
:1002100036490143364A1160704770B5002100230A
:100220000F22C4784CB3324C246804F4E064C4F563
:10023000E0644FEA1421C1F1040322FA01F2447888
:1002400004FA03F1847804EA020444EA01014FEA63
:100250000111284C0678A155047804F01F054FF0D1
:10026000010404FA05F405784FEA65154FF0E0261D
:1002700006EB8505C5F8004109E0047804F01F0588
:100280000124AC401C4D0678761145F8264070BD1F
:100290001A4A0A4002431A4B1A60704741B1194A80
:1002A000126842EA00024FF0E023C3F8102D07E085
:1002B000144A126822EA00024FF0E023C3F8102D1E
:1002C0007047042808D14FF0E021096941F004018A
:1002D0004FF0E022116107E04FF0E021096921F0C1
:1002E00004014FF0E0221161704700000000FA05A0
:1002F0000CED00E000E400E080E100E080FFFF1F83
:1003000008ED00E010ED00E010B50446CA48844254
:1003100008D10121042000F024FB0021042000F07A
:1003200020FB46E0C548844208D10121082000F0A6
:1003300018FB0021082000F014FB3AE0C04884427A
:1003400008D10121102000F00CFB0021102000F04A
:1003500008FB2EE0BB48844208D10121202000F098
:1003600000FB0021202000F0FCFA22E0B648844285
:1003700008D10121402000F0F4FA0021402000F0D3
:10038000F0FA16E0B148844208D10121802000F043
:10039000E8FA0021802000F0E4FA0AE0AC48844248
:1003A00007D10121801500F0DCFA0021A01500F032
:1003B000D8FA10BD10B50121084600F0D2FA00218C
:1003C000012000F0CEFA10BD2DE9F04102460025D3
:1003D0000026002000230024002791F803C00CF021
:1003E0000F0591F803C01CF0100F03D091F802C064
:1003F0004CEA0505B1F800C01CF0FF0F31D01468BD
:1004000000202BE04FF0010C0CFA00F3B1F800C013
:100410000CEA03069E4220D183004FF00F0C0CFA29
:1004200003F7BC4305FA03FC4CEA040491F803C04B
:10043000BCF1280F06D14FF0010C0CFA00FCC2F8F9
:1004400014C00AE091F803C0BCF1480F05D14FF089
:10045000010C0CFA00FCC2F810C0401C0828D1D3D3
:100460001460B1F800C0BCF1FF0F34DD5468002007
:100470002EE000F1080C4FF0010808FA0CF3B1F877
:1004800000C00CEA03069E4221D183004FF00F0CFE
:100490000CFA03F7BC4305FA03FC4CEA040491F898
:1004A00003C0BCF1280F05D100F1080C08FA0CF8C4
:1004B000C2F8148091F803C0BCF1480F07D100F1D5
:1004C000080C4FF0010808FA0CF8C2F81080401C24
:1004D0000828CED35460BDE8F0814FF6FF7101804B
:1004E000022181700421C170704702460020936888
:1004F0000B4201D0012000E00020704701468868CF
:1005000080B2704702460020D3680B4201D0012020
:1005100000E0002070470146C86880B27047016162
:100520007047416170470AB1016100E04161704765
:10053000C16070474FF480320A43826181618261F9
:1005400082698269704702460020424B18684FF664
:100550008073184040EA021008433E4B1860704711
:100560003D49C8617047F0B50A46002300240021C8
:10057000002500F00046B6F1004F02D1354EF1697A
:1005800001E0344E7168C0F3034583B200F44016B5
:10059000B6F5401F08D121F070612E4E766826F026
:1005A00070662C4F7E6012E000F48016B6F5801F56
:1005B00006D1032606FA05F4A14341F0706106E076
:1005C000460D360103FA06F6B14341F0706122B1DF
:1005D000460D360103FA06F6314300F00046B6F147
:1005E000004F02D11B4EF16101E01A4E7160F0BD67
:1005F00030B500228B071C0F0F2303FA04F2154BB2
:1006000008338C1053F824309343124C08348D1067
:1006100044F8253023468C1053F824308C07240FDF
:1006200000FA04F423430B4C08348D1044F82530B1
:1006300030BD0A490860704700080140000C0140C5
:10064000001001400014014000180140001C01404E
:10065000002001400000014000002042DC00204258
:10066000DB48006840F00100D9490860084640684E
:10067000D8490840D649486008460068D64908402D
:10068000D34908600846006820F4802008600846C6
:10069000406820F4FE0048604FF41F0088607047F7
:1006A000CB49096821F48031C94A116011460968B3
:1006B00021F480211160B0F5803F03D0B0F5802F88
:1006C0000ED106E0C249096841F48031C04A116088
:1006D00007E0BF49096841F4A021BD4A116000E06C
:1006E00000BF00BF704710B5014600220023002064
:1006F0004A11012A02D1B64C236806E0022A02D12F
:10070000B34C236A01E0B24C636A01F01F0201247A
:1007100094401C4201D0012000E0002010BD70B5C3
:1007200000240025002600BF3120FFF7DCFF06462D
:10073000641CB4F5A06F01D0002EF5D03120FFF776
:10074000D2FF08B1012500E00025284670BD014612
:1007500000209F4A106820F0F80040EAC1001060B5
:1007600070479E490860704702460020984B5868C1
:1007700020F47C1042EA01031843954B58607047FF
:1007800096490866704701460020914A506820F05B
:1007900003000843506070478D48406800F00C002B
:1007A0007047014600208A4A506820F0F000084354
:1007B0005060704701460020854A506820F4E06090
:1007C00008435060704701460020814A506820F479
:1007D000605040EAC1005060704729B17C4A527AAB
:1007E00002437B4B5A7206E0794A527AC343DBB22A
:1007F0001A40774B5A727047794908607047014632
:100800000020734A506820F440400843506070470D
:100810000021744A11706E4A82F82010012802D01B
:10082000042808D103E001216E4A117004E005217B
:100830006C4A117000E000BF00BF70476A49086051
:1008400070476349096A0143614A11627047674909
:100850000860704730B500210022002400235C4D61
:100860006D6805F00C0121B1042905D0082923D1B8
:1008700005E05F4D056022E05D4D05601FE0544DD1
:100880006D6805F47012524D6D6805F480340225D0
:1008900005EB92421CB9574D554305600BE04C4D9A
:1008A0006D6815F4003F03D0524D5543056002E0DA
:1008B0004F4D5543056002E04D4D056000BF00BF40
:1008C000434D6D6805F0F00109094B4D6B5C0568FF
:1008D000DD4045603E4D6D6805F4E061090A464D16
:1008E0006B5C4568DD408560394D6D6805F460518D
:1008F000C90A414D6B5C4568DD40C560344D6D688B
:1009000005F44041890B3D4D6B5CC568B5FBF3F5C3
:10091000056130BD29B12E4A526902432C4B5A6100
:1009200004E02B4A52698243294B5A61704729B12E
:10093000274A92690243264B9A6104E0244A92694D
:100940008243234B9A61704729B1214AD2690243FD
:100950001F4BDA6104E01E4AD26982431C4BDA6104
:10096000704729B11A4AD2680243194BDA6004E091
:10097000174AD2688243164BDA60704729B1144A8D
:1009800012690243124B1A6104E0114A1269824350
:100990000F4B1A6170471A49086070470F49C864C5
:1009A00070470B49C87170470948406A40F0807031
:1009B00007494862704701460020054A92680A428A
:1009C00001D0012000E00020704701498872704783
:1009D000001002400000FFF8FFFFF6FE0000424258
:1009E000D800424220100240800442423C0442426D
:1009F00000127A0000093D000000002010000020D5
:100A0000400442420020474908604749C1F80404B5
:100A10004649086001F104010860454845490860FD
:100A2000704700213F498279DAB33F4AD2F8002467
:100A300003689A433C4BC3F800241A46D2F80424B6
:100A400003689A4301F104031A60027911440A68A9
:100A5000036842EA03020A60334AD2F808240368B2
:100A600022EA0302304BC3F808241A46D2F80C24B9
:100A7000036822EA0302304B1A604279102A11D12E
:100A8000294AD2F8082403681A43274BC3F80824DC
:100A90001A46D2F80C2403681A43234BC3F80C24DB
:100AA0000EE007E01F49427911440A6803681A43BF
:100AB0000A6005E0027911440A6803689A430A60F3
:100AC00070470021016001710C2141710021817189
:100AD00070471A49096841EA0001134AC2F8101424
:100AE000704701460020134A12680A4201D00120D3
:100AF00000E0002070470F49086070470146002061
:100B00000022084B1B6803EA0102074BD3F8143498
:100B10000B4202D00AB1012000E0002070470549D5
:100B200008607047000401400000014008040140D3
:100B3000FFFF0F00140401400C04014010040140A9
:100B400010B50446FF48844208D10121C014FFF7C4
:100B500008FF0021E014FFF704FFC4E0B4F1804F68
:100B600008D101210846FFF709FF00210120FFF706
:100B700005FFB8E0F448844208D101210220FFF7C4
:100B8000FDFE00210220FFF7F9FEACE0EF488442B1
:100B900008D101210420FFF7F1FE00210420FFF716
:100BA000EDFEA0E0EA48844208D101210820FFF7C9
:100BB000E5FE00210820FFF7E1FE94E0E5488442CD
:100BC00008D101211020FFF7D9FE00211020FFF7E6
:100BD000D5FE88E0E048844208D101212020FFF7BB
:100BE000CDFE00212020FFF7C9FE7CE0DB488442D7
:100BF00008D101214014FFF7B4FE00216014FFF773
:100C0000B0FE70E0D648844209D10121C804FFF744
:100C1000A8FE00214FF40020FFF7A3FE63E0D148B7
:100C2000844209D101210805FFF79BFE00214FF402
:100C30008010FFF796FE56E0CB48844209D101218F
:100C40004805FFF78EFE00214FF40010FFF789FEE4
:100C500049E0C648844208D101214020FFF78EFEBA
:100C600000214020FFF78AFE3DE0C148844208D1C0
:100C700001218020FFF782FE00218020FFF77EFE09
:100C800031E0BC48844208D101218015FFF776FE8F
:100C90000021A015FFF772FE25E0B748844209D174
:100CA00001210804FFF75DFE00214FF48030FFF7BB
:100CB00058FE18E0B148844209D101214804FFF7E9
:100CC00050FE00214FF40030FFF74BFE0BE0AC4824
:100CD000844208D101218804FFF743FE00214FF42C
:100CE0008020FFF73EFE10BD00220288954B9842FF
:100CF0000ED09A4B98420BD0B0F1804F08D0924B57
:100D0000984205D0914B984202D0914B984204D121
:100D10004FF68F731A404B881A438E4B984207D078
:100D20008D4B984204D04FF6FF431A40CB881A43AC
:100D300002808B8883850B880385824B98420BD079
:100D4000864B984208D08C4B984205D08B4B9842EA
:100D500002D08B4B984201D10B7A03860123838208
:100D6000704770B5002400220023058C4FF6FE76F4
:100D700035400584028C8388048B4FF68F752C4098
:100D8000B51E2C400D882C43751E2A400D892A4320
:100D90004D882A436B4DA8420BD0704DA84208D015
:100DA000754DA84205D0754DA84202D0744DA84299
:100DB00013D14FF6F7752A404D892A434FF6FB753C
:100DC0002A408D882A434FF6FF652B404FF6FF558A
:100DD0002B408D892B43CD892B4383800483CD8881
:100DE0008586028470BD70B5002400220023058C26
:100DF0004FF6EF7635400584028C8388048B48F6E5
:100E0000FF752C404FF6FF452C400D882D0644EA17
:100E100015444FF6DF752A400D892D0542EA15422B
:100E20004D882D0542EA1542464DA84202D04B4D51
:100E3000A8421BD14FF67F752A404D892D0542EA05
:100E400015424FF6BF752A408D882D0542EA15429E
:100E50004FF6FF352B404FF2FF752B408D89AD04C7
:100E600043EA1543CD89AD0443EA154383800483E7
:100E7000CD880587028470BD70B500240022002350
:100E8000058C4FF6FF6635400584028C8388848B81
:100E90004FF68F752C404FF6FC752C400D882C4377
:100EA0004FF6FF552A400D892D0642EA15424D881E
:100EB0002D0642EA1542234DA84202D0274DA842F2
:100EC0001BD14FF2FF752A404D892D0642EA15428B
:100ED0004FF6FF352A408D882D0642EA15424EF620
:100EE000FF752B404DF6FF752B408D892D0543EA8C
:100EF0001543CD892D0543EA154383808483CD882E
:100F00008587028470BD70B5002200230024058C03
:100F10004EF6FF7635400584038C8488828B48F634
:100F2000FF752A404FF6FF452A400D882D0642EAFC
:100F300015424DF6FF752B400D892D0743EA1543E9
:100F40004D881FE0002C01400004004000080040D4
:100F5000000C00400010004000140040003401402C
:100F6000004C014000500140005401400018004076
:100F7000001C0040002000400040014000440140AF
:100F8000004801402D0743EA1543F94DA84202D01D
:100F9000F84DA84206D14BF6FF752C408D89AD0562
:100FA00044EA154484808283CD88A0F840500384AD
:100FB00070BD828B4FF2FF331A408283828B0B0607
:100FC00042EA134282837047F0B50C461546002270
:100FD00000210026078C4EF6FF7C07EA0C070784E9
:100FE000828B018C27073E0C40F6FF473A402F06C4
:100FF00042EA17421F0742EA1742DD4FB8420ED0BD
:10100000DC4FB8420BD0B0F1804F08D0DA4FB84275
:1010100005D0DA4FB84202D0D94FB84206D14DF6CA
:10102000FF77394046F48057394305E047F6FF57CC
:10103000394044F48057394382830184F0BD828B68
:101040004FF6F3731A408283828B0A438283704780
:10105000F0B50C461546002200210026078C4FF6FD
:10106000FF6C07EA0C070784828B018C27063E0C75
:101070004FF60C773A401F0545EA17473A43BC4FF5
:10108000B8420ED0BB4FB8420BD0B0F1804F08D061
:10109000B94FB84205D0B94FB84202D0B84FB842A4
:1010A00006D14FF6FF57394046F48077394305E0C3
:1010B0004FF2FF57394044F48077394382830184EB
:1010C000F0BD028B4FF2FF331A400283028B0B06F6
:1010D00042EA134202837047F0B50C4615460022DF
:1010E00000210026078C4FF6EF7C07EA0C070784E7
:1010F000028B018C27053E0C40F6FF473A401F0744
:1011000042EA17422F0642EA1742994FB8420ED0E0
:10111000984FB8420BD0B0F1804F08D0964FB842EC
:1011200005D0964FB84202D0954FB84206D14FF63F
:10113000DF77394046F01007394305E04FF65F7717
:10114000394044F01007394302830184F0BD028B1B
:101150004FF6F3731A400283028B0A4302837047EF
:10116000F0B50C46154600220021068C4FF6FE779E
:101170003E400684028B018C4FF60C7632401E05F1
:1011800045EA164632437A4EB0420ED0794EB0420E
:101190000BD0B0F1804F08D0774EB04205D0774EDB
:1011A000B04202D0764EB04206D14FF6FD763140C5
:1011B00044F00106314305E04FF6F576314044F046
:1011C0000106314302830184F0BD70B505460C462B
:1011D000674885420ED0674885420BD0B5F1804FF5
:1011E00008D06548854205D06448854202D06448ED
:1011F000854200D100E000BF208850B92389A28831
:1012000061882846FFF7ACFFE1882846FFF79FFF7B
:1012100025E0208804280AD12389A28861882846ED
:10122000FFF75AFFE1882846FFF74BFF17E02088B9
:1012300008280AD12389A28861882846FFF708FF79
:10124000E1882846FFF7FBFE09E02389A288618830
:101250002846FFF7B9FEE1882846FFF7AAFE70BDD1
:101260002DE9F04105460C4600260127608808B9A3
:10127000022600E00026A088012801D1022700E014
:1012800001272088A0B92389A28861882846FFF712
:1012900067FFE1882846FFF75AFF23893A4631461F
:1012A0002846FFF719FFE1882846FFF70AFF13E0F9
:1012B0002389A28861882846FFF70EFFE188284627
:1012C000FFF7FFFE23893A4631462846FFF748FFDD
:1012D000E1882846FFF73BFFBDE8F0810A884B888C
:1012E0001A438B881A43CB881A430B891A434B89BC
:1012F0001A438B891A43A0F8442070474FF6FF71B8
:10130000818000210180C1804180017270470021ED
:10131000018041808180C180018141818181C181C1
:101320007047002101804180012181800021C1801E
:10133000018170470021018041808180C18001814D
:1013400041818181704721B1028842F0010202800F
:1013500004E002884FF6FE731A400280704789B19C
:10136000B0F8442042F40042A0F8442010E000000D
:10137000002C0140003401400004004000080040FF
:10138000000C0040B0F84420C2F30E02A0F8442044
:10139000704710B51AB183890B43838104E08389B8
:1013A000CC43A4B22340838110BD8182704741EABF
:1013B0000203A0F84830704710B51AB183890B4377
:1013C000838104E08389CC43A4B22340838110BD90
:1013D00001894FF6F8721140018170470A460021D9
:1013E00001894FF68F73194011430181704730B561
:1013F00004460D4629462046FFF7F0FF208940F0BD
:101400000700208130BD2DE9F04104460D46164607
:101410001F46602D06D13B46012231462046FFF78C
:101420005BFE05E03B46012231462046FFF798FE71
:1014300029462046FFF7D2FF208940F0070020818F
:10144000BDE8F08130B50C4600210189C9B21D0606
:1014500042EA154525432943018130BD2DE9F0417C
:1014600005460E4617469846002443463A463146FE
:101470002846FFF7E7FF2C894FF6F8710C4044F03F
:1014800007044FF68F710C4044F070042C81BDE8C6
:10149000F081F0B504460D4616461F463B463246DF
:1014A00029462046FFF7CEFF208940F48040208166
:1014B000F0BD0185828270470A46002101884FF6FF
:1014C0008F731940114301807047F0B50C461546E3
:1014D0001E460021002200230189028B038C4FF657
:1014E000F877394021434FF6FC473A4040F2011764
:1014F0003A434FF6DD773B40370545EA17473B4314
:10150000018102830384F0BD0A460021018B4FF65E
:101510008F7319401143018370470A460021018BE4
:1015200048F6FF731940130641EA134101837047DF
:101530000A460021818B4FF68F7319401143818336
:1015400070470A460021818B48F6FF731940130645
:1015500041EA13418183704721B1028842F0800241
:10156000028004E002884FF67F731A4002807047C1
:1015700021B1828842F00402828004E082884FF622
:10158000FB731A408280704721B1828842F00802C2
:10159000828004E082884FF6F7731A408280704799
:1015A00021B1828842F00102828004E082884FF6F5
:1015B000FE731A40828070470A460021018B4FF665
:1015C000F77319401143018370470A460021018BCC
:1015D0004FF2FF731940130641EA1341018370472C
:1015E0000A460021818B4FF6F7731940114381831E
:1015F00070470A460021818B4FF2FF731940130692
:1016000041EA1341818370470A460021018B4FF65E
:10161000FB7319401143018370470A460021018B77
:101620004FF6FF331940130641EA13410183704717
:101630000A460021818B4FF6FB73194011438183C9
:1016400070470A460021818B4FF6FF33194013067D
:1016500041EA1341818370470A460021018B4FF60E
:101660007F7319401143018370470A460021018BA3
:10167000C1F30E01130641EA1341018370470A4684
:101680000021818B4FF67F7319401143818370478E
:101690000A460021818BC1F30E01130641EA134172
:1016A000818370470A460021018C4FF6FD73194073
:1016B0001143018470470A460021018C4FF6F773ED
:1016C00019401143018470470A460021018C4FF6EE
:1016D000DF731940130541EA1341018470470A463C
:1016E0000021018C4FF67F731940130541EA134125
:1016F000018470470A460021018C4FF6FF531940C0
:10170000130641EA1341018470470A460021018C07
:101710004FF2FF731940130641EA134101847047E9
:101720000A460021018C4DF6FF731940130741EA68
:1017300013410184704730B5002301248C40A3B2CB
:10174000048CDD43ADB22C400484048C02FA01F514
:10175000ADB22C43048430BD30B5002304248C404A
:10176000A3B2048CDD43ADB22C400484048C02FA95
:1017700001F5ADB22C43048430BD70B503460020A2
:1017800000241846183001258D40ACB21D8CE6436C
:10179000B6B235401D8409B1082909D100EB6100BA
:1017A000056825F0700505600568154305600CE0C7
:1017B0000D1FADB200EB6500056825F4E04505603E
:1017C0000568160645EA1645056070BD21B1028818
:1017D00042F00202028004E002884FF6FD731A40D4
:1017E0000280704721B1028842F00402028004E0C6
:1017F00002884FF6FB731A400280704721B182883D
:1018000042F08002828004E082884FF67F731A40A3
:101810008280704702884FF6F7731A400280028870
:101820000A430280704782884FF68F731A40828085
:1018300082880A438280704702894FF6F8731A4003
:10184000028102890A430281704702894FF67F7341
:101850001A40028102890A430281704781847047DD
:1018600081857047818670470187704781877047FF
:10187000A0F84010704702884FF6FF431A400280DC
:1018800002880A43028070470146888E70470146ED
:10189000088F70470146888F70470146B1F84000B5
:1018A00070470146888C70470146088D7047024694
:1018B0000020138A0B4201D0012000E00020704775
:1018C000CA430282704730B502460020002300243C
:1018D000158A05EA0103958905EA010413B10CB1E3
:1018E000012000E0002030BDCA43028270470000A2
:1018F00030B943F2DB014FF0204242F8201005E0FE
:1019000043F2D2014FF0204242F820106FF07042B3
:10191000411C4FF0204343F8212011461A4602EBA8
:101920008002C2F80411704710280AD118214FF024
:1019300020421166402151664FF0FC319166D1661C
:1019400010E01821F84A11604FF040014FF020429A
:10195000C2F884104FF0FC31F44A11604FF020427D
:10196000C2F88C1070471820F14908604FF0000051
:101970004FF02041C1F8A4004FF0FC30ED49086061
:1019800001F10401086001F1040108607047D0E929
:1019900001121143C26811430269114342691143A4
:1019A00082691143C2691143026A1143426A1143B9
:1019B000826A1143C26A1143026B11434FF0204304
:1019C000026843F822108168082908D11A46016884
:1019D00052F8211041F04001026843F82210416B97
:1019E0000968426B526841EA0211426B926841EA0F
:1019F0000221426BD26841EA0241426B126941EA1C
:101A00000251426B526941EA0261426B9269114391
:101A10000268521C4FF0204343F82210C16AB1F50E
:101A2000804F1AD1816B0968826B526841EA0211BA
:101A3000826B926841EA0221826B126941EA02518B
:101A4000826B526941EA0261826B926911430268BA
:101A500003EB8202C2F8041108E06FF070414FF00E
:101A60002043026803EB8202C2F80411704730B5CC
:101A7000002100220023446844F0080485682C43B8
:101A8000C5682C4305692C43456944EA45248569AA
:101A900044EA4531C4692468C5696D6844EA05248F
:101AA000C569AD6844EA0544C569ED6844EA056264
:101AB000046A2468056A6D6844EA0524056AAD680D
:101AC00044EA0544056AED6844EA05630468102C9D
:101AD00005D14FF020442166A266E36607E0924CF0
:101AE00021604FF02044C4F88820934C236030BD1F
:101AF000016841F01001426841EA4221826841EAEE
:101B000042318B4A1160C1680968C268526841EA73
:101B10000221C268926841EA0241C268D26841EA81
:101B20000261844A1160016909680269526841EAE8
:101B300002210269926841EA02410269D26841EADF
:101B400002617E4A1160416909684269526841EA4E
:101B500002214269926841EA02414269D26841EA3F
:101B600002614FF02042C2F8B010704700210160BE
:101B70000221416000218160C16001614161816198
:101B8000C16101624FF480514162490081620021CC
:101B9000C16201630F21426B1160426B5160FF21F2
:101BA000426B91600F21426BD160426B1161426BBD
:101BB00051610021426B91610F21826B1160826B38
:101BC0005160FF21826B91600F21826BD160826B2B
:101BD0001161826B51610021826B9161704710210C
:101BE0000160002141608160C160016141618161EA
:101BF000FC21C2691160C2695160C2699160C26909
:101C0000D160026A1160026A5160026A9160026AE0
:101C1000D16070470021016041608160FC21C26891
:101C20001160C2685160C2689160C268D160026987
:101C3000116002695160026991600269D160426974
:101C4000116042695160426991604269D160704798
:101C500051B14FF0204252F8202042F001024FF0E3
:101C6000204343F8202009E04FF0204252F8202082
:101C7000334B1A404FF0204343F82020704799B16E
:101C8000102808D14FF02042126E42F004024FF0AB
:101C900020431A661DE0244A126842F004024FF005
:101CA0002043C3F8802014E0102809D14FF02042CF
:101CB000126E234BDB1E1A404FF020431A6608E0D9
:101CC000194A12681F4B02EA03024FF02043C3F87F
:101CD0008020704740B11649096841F004014FF077
:101CE0002042C2F8A01008E011490968154A01EA2B
:101CF00002014FF02042C2F8A010704799B110289D
:101D000008D14FF02042126E42F040024FF02043C3
:101D10001A662DE0044A126842F040024FF0204358
:101D2000C3F8802024E00FE0800000A0880000A01D
:101D3000A00000A0A80000A08C0000A0AC0000A0A3
:101D4000FEFF0F00FBFF0F00102808D14FF02042CC
:101D5000126E684B1A404FF020431A6608E0664A3C
:101D60001268644B02EA03024FF02043C3F880205C
:101D7000704701460020102903D14FF02042506FD8
:101D800001E05E4A1068704710B5F2B1102807D123
:101D90004FF020435B6E0B434FF02044636632E00C
:101DA000B0F5807F08D1564B1B6843EA01034FF022
:101DB0002044C4F8843026E0524B1B6843EA0103F8
:101DC0004FF02044C4F8A4301DE0102807D14FF094
:101DD00020435B6E8B434FF02044636613E0B0F505
:101DE000807F08D1464B1B6823EA01034FF0204453
:101DF000C4F8843007E0434B1B6823EA01034FF02B
:101E00002044C4F8A43010BD10B5024600200023C1
:101E1000102A03D14FF02044636E07E0B2F5807FB3
:101E200002D1374C236801E0364C23680B4201D0C5
:101E3000012000E0002010BD102807D14FF0204203
:101E4000526E8A434FF020435A6613E0B0F5807F0C
:101E500008D12B4A126822EA01024FF02043C3F84E
:101E6000842007E0274A126822EA01024FF020434B
:101E7000C3F8A420704770B5024600200023002458
:101E80000025102A03D14FF02046736E07E0B2F50B
:101E9000807F02D11A4E336801E01A4E336803EA9C
:101EA000010403EAD10514B10DB1012000E00020C6
:101EB00070BD102808D14FF02042526E22EAD102A4
:101EC0004FF020435A6613E0B0F5807F08D10C4AEA
:101ED000126822EAD1024FF02043C3F8842007E0C1
:101EE000084A126822EAD1024FF02043C3F8A42026
:101EF00070470000BFFF0F00800000A0940000A00A
:101F0000840000A0A40000A010B500F0FDF800F0CF
:101F10007BF900F0E1F900F0FBF900F0D7F900F0EF
:101F20009FFA00F0FDFC10BD1CB5FFF7EDFF00208F
:101F300000F0D0FC48F2304300934623FA223221CD
:101F4000084600F0B3FD48F230402E4908800020DA
:101F50002D4908802DA30C22CDE900231423C8228B
:101F60003221502001F059F81F230093C823FA2290
:101F70004721322000F09AFD4AF251602249088040
:101F80004723FA221946322000F0E4FD47F67C5040
:101F90001D490880C923FB223121084600F032FE8A
:101FA000CA23FC223021084600F02CFECB23FD2260
:101FB0002F21084600F026FEC823FA2247213220AE
:101FC00001F0BAF81F200F4908804FF6FF700E4944
:101FD0000880124B1022CDE900238223962264212F
:101FE000502001F01AF80BE00D48006808B90120F4
:101FF00000E000200A4908604FF47A7000F03BF9D5
:10200000F2E70000300000202E00002057696E64C7
:102010006F7720646973706C61790000AC310008DF
:1020200098812342704700BFFEE700BFFEE700BF74
:10203000FEE700BFFEE7704770477047704700003B
:1020400000210020674A126842F48032654B1A6012
:1020500000BF644A126802F40030491C10B9B1F59F
:10206000A06FF6D15F4A126812F4003F01D0012040
:1020700000E00020012842D15B4A126842F01002C1
:10208000594B1A601A46126822F003021A601A4667
:10209000126842F002021A60524A5268514B5A606A
:1020A0001A4652685A601A46526842F480625A6070
:1020B0001A46526822F47C125A601A46526842F458
:1020C000E8125A601A46126842F080721A6000BF25
:1020D000444A126812F0007FFAD0424A526822F055
:1020E0000302404B5A601A46526842F002025A609C
:1020F00000BF3C4A526802F00C02082AF9D170472E
:1021000010B5FFF79DFF10BD10B53648006840F0D0
:1021100001003449086008464068344908403149A4
:10212000486008460068324908402E490860084661
:10213000006820F4802008600846406820F4FE0013
:1021400048604FF41F008860FFF7DAFF4FF000602F
:102150002849086010BD10B5002100200022214B45
:102160005B6803F00C0121B1042906D0082928D1AD
:1021700007E0214B214C236027E01F4B1F4C2360BD
:1021800023E0184B5B6803F47010164B5B6803F494
:102190008032022303EB904022B9194B4343174C82
:1021A00023600DE00F4B5B6813F4003F04D0144B29
:1021B0004343124C236003E00F4B43430F4C236017
:1021C00003E00D4B0D4C236000BF00BF054B5B6867
:1021D000C3F303130B4CE15C084B1B68CB40074C6B
:1021E000236010BD00100240002002400000FFF8F4
:1021F000FFFFF6FE08ED00E000127A001400002058
:1022000000093D001800002010B56FF00400FEF733
:1022100058F82A4800682A49B0FBF1F029490870AB
:10222000084600784FF47A7148432749088010BD6A
:102230000146244A12784A434FF0E0235A610022B3
:102240009A611A46126942F001021A6100BF4FF00A
:10225000E022106910F0010F02D010F4803FF6D098
:102260004FF0E022126922F001024FF0E0231A61E0
:1022700000229A6170470146134A12884A434FF080
:10228000E0235A6100229A611A46126942F0010263
:102290001A6100BF4FF0E022106910F0010F02D068
:1022A00010F4803FF6D04FF0E022126922F00102D4
:1022B0004FF0E0231A6100229A6170471400002059
:1022C00000127A00280000202A00002010B54FF4E8
:1022D000A060FDF79DFF10BD08B501218020FEF72D
:1022E00026FB4FF4F860ADF8000010208DF80300D5
:1022F00003208DF8020069460448FEF765F84FF4A4
:10230000F8610248FEF70BF908BD0000001C01400F
:1023100008B501210820FEF70AFB0420ADF80000F3
:1023200010208DF8030003208DF802006946044850
:10233000FEF74AF804210248FEF7F3F808BD000052
:10234000000C014008B501213420FEF7F0FA40F2FC
:102350000110ADF8000048208DF8030069463C48A4
:10236000FEF732F84FF40050ADF8000048208DF829
:10237000030069463748FEF727F80820ADF800004B
:1023800048208DF8030069463348FEF71DF808BD64
:1023900010B5044614B10120304908702F48007868
:1023A00090B301212A48FEF7A0F880B14FF4005104
:1023B0002848FEF79AF850B14FF480712448FEF790
:1023C00094F820B108212448FEF78FF8E0B90A20DC
:1023D000FFF751FF00202149087001211C48FEF73A
:1023E00084F808B9012010BD4FF400511948FEF7D8
:1023F0007CF808B90220F6E74FF480711448FEF724
:1024000074F810B90320EEE706E008211248FEF741
:102410006CF8D8B90420E6E701210D48FEF765F80D
:10242000012813D141030B48FEF75FF801280DD1B5
:1024300001020748FEF759F8012807D1082106488C
:10244000FEF753F8012801D1044908700020CAE7BB
:102450000008014000100140001401402C00002041
:102460000EB5FFF76FFF01210846FEF760FA08215D
:102470000020FEF7BDF840F20110019000208DF819
:1024800008000C208DF8090001208DF80A0001A831
:10249000FEF7C7FA0D210220FEF7AAF84FF400500C
:1024A000019001A8FEF7BDFA03210846FEF7A0F847
:1024B0000820019001A8FEF7B4FA06208DF800006C
:1024C00002208DF8010000208DF8020001208DF817
:1024D00003006846FDF7A1FE28208DF800000220C9
:1024E0008DF8010001208DF802008DF80300684688
:1024F000FDF793FE17208DF8000002208DF80100F3
:102500008DF8020001208DF803006846FDF785FE76
:1025100009208DF8000002208DF8010003208DF8BD
:10252000020001208DF803006846FDF776FE0EBD1F
:1025300010B50A20FFF79FFE01212E48FDF7D5FFB9
:1025400080B92D48006808B9012000E000202A4920
:1025500008602A48D0F8980108B9012000E000205E
:10256000274908600120FEF7DAFA10BD10B50A20ED
:10257000FFF781FE4FF400512248FDF7B6FF38B94E
:102580002148006808B9012000E000201E490860C9
:102590004FF40050FEF7C3FA10BD10B50A20FFF744
:1025A0006AFE4FF480711348FDF79FFF38B9174852
:1025B000006808B9012000E00020144908604FF4C9
:1025C0008070FEF7ACFA10BD10B50A20FFF753FE7D
:1025D00008210F48FDF789FF38B90E48006808B98F
:1025E000012000E000200B4908600820FEF797FA60
:1025F00010BD000000080140888121420080234274
:1026000098812342001001409C812342A0812342F3
:1026100000140140A48123427FB505460C460121E8
:102620000220FEF791F9ADF80850ADF80440002003
:10263000ADF80A00ADF8060001A93848FEF754FBD2
:10264000012211463548FEF7A4FE1D208DF800003A
:1026500000208DF8010003208DF8020001208DF884
:1026600003006846FDF7D9FD01212C48FEF76BFEFB
:102670007FBD10B501212948FFF725F958B1012187
:102680002648FFF731F92648006808B9012000E024
:1026900000202349086010BD30B589B005460C46BE
:1026A00001210220FEF750F901210920FEF73FF930
:1026B00001211C48FDF757FF2020ADF8200018200D
:1026C0008DF8230003208DF8220008A91648FDF795
:1026D0007BFEADF81850ADF814400020ADF81A009C
:1026E000ADF8160005A90D48FEF7FEFA7020ADF80A
:1026F00004000120ADF806000020ADF80C0001A98F
:102700000648FEF770FB08210448FEF75EFF012132
:102710000248FEF718FE09B030BD0000000400407A
:102720009C81234200081A00000C014000B59FB0B4
:1027300001210802FEF7EEF8012140F2E510FEF754
:10274000F6F80220ADF8780010208DF87B00032009
:102750008DF87A001EA9F848FDF736FE4CF233706A
:10276000ADF8780003208DF87A0018208DF87B00F2
:102770001EA9F248FDF728FE4FF6C070ADF87800AC
:102780001EA9EF48FDF720FE0120ADF878001EA934
:10279000EC48FDF719FE4FF48050ADF878001EA903
:1027A000E948FDF711FE01200890002009900F2054
:1027B0000A9000200B900C900D900E9001900290CA
:1027C00003200390002004900590069007900620B7
:1027D0000F90002010901190102012900020139064
:1027E00015901490169017904FF480501890002078
:1027F00019904FF480401A9000201B9008A81C905C
:1028000001A81D900FA8FFF7C2F801210620FFF7CD
:102810001FFA1FB000BD4FF0D842108051807047A2
:1028200001464FF0D84211805088508870472220CE
:102830004FF0D8410880704722214FF0D8421180D4
:10284000114648887047014606E0002000E0401C21
:1028500042F210729042FAD30A00A1F10101F4D1C0
:10286000704710B503460C46B8488088A0F509416A
:10287000993917D1B548807958B121464E20FFF7D4
:10288000CAFF40F23F10C01A81B24F20FFF7C3FFCA
:102890001FE019464E20FFF7BEFF21464F20FFF7ED
:1028A000BAFF16E0A948807940B119462020FFF709
:1028B000B2FF21462120FFF7AEFF0AE0214620208B
:1028C000FFF7A9FF40F23F10C01A81B22120FFF7A5
:1028D000A2FF10BD30B50446002500210846FFF7D1
:1028E000C0FFFFF7A4FF00BF03E04FF0D8404480D3
:1028F0006D1CB5F5963FF8D330BD40B10121934A28
:10290000917140F23F111180EF21518007E00021C9
:102910008E4A9171EF21118040F23F115180704732
:1029200010B500208A490860FFF700FF3220FFF74A
:10293000A2FC01210020FFF76EFF3220FFF79BFC75
:102940000020FFF76DFF8149888008468088A0F548
:10295000094199397ED101210020FFF75CFF43F640
:102960003F310120FFF757FF4FF4C0610220FFF70E
:1029700052FF07210C20FFF74EFF06210D20FFF725
:102980004AFF4FF448510E20FFF745FFBB211E20A0
:10299000FFF741FF46F664210320FFF73CFF0021CB
:1029A0000F20FFF738FF4FF46F414420FFF733FF4C
:1029B00000214520FFF72FFF40F23F114620FFF78F
:1029C0002AFF00213020FFF726FF40F20671312058
:1029D000FFF721FF40F206213220FFF71CFF4FF4E2
:1029E00040713320FFF717FF02213420FFF713FF58
:1029F00000213520FFF70FFF40F207713620FFF767
:102A00000AFF4FF400713720FFF705FF40F6081169
:102A10003A20FFF700FF40F60D713B20FFF7FBFE69
:102A200006212820FFF7F7FE41F2EB212F20FFF7C8
:102A3000F2FE4FF4E0412620FFF7EDFE4BF2E301FA
:102A40002020FFF7E8FE44212720FFF7E4FE47F6A9
:102A5000456100E012E02E20FFF7DDFE002110208E
:102A6000FFF7D9FE1E20FFF706FC46F67001112085
:102A7000FFF7D1FE33210720FFF7CDFE0120FFF73E
:102A80003CFF0120324908604FF6FF70FFF722FF3C
:102A900010BD30B5014601F01F04C1F34513CA0A49
:102AA000E50205EB43151544A8B230BD2DE9F0470A
:102AB00004460D4616461F46DDF8209023488079CF
:102AC00060B140F23F10001B83B240F23F10801B08
:102AD00081B23A46284600F02FFB05E03B463246DD
:102AE0002946204600F028FBFFF7A1FE781B401C7A
:102AF000311B491C00FB01F803E04FF0D840A0F85F
:102B000002905FEA0800A8F10108F6D140F23F13F5
:102B1000EF220021084600F00FFBBDE8F08770B5FA
:102B200004460D4629462046FFF79BFEFFF784FE2C
:102B30000646FFF7AEFF70BD0008014000140140DB
:102B400000180140001C014000200140320000201C
:102B5000840121422DE9FF4F85B081468A4600203D
:102B6000049003900798A0EB09050898A0EB0A06CB
:102B7000CDF80890CDF804A0002D01DD012705E077
:102B80000DB9002702E04FF0FF376D42002E02DD45
:102B90004FF0010806E016B94FF0000802E04FF0D0
:102BA000FF387642B54201DD2C4600E034464FF056
:102BB000000B21E0019881B2029880B200F0AAFADD
:102BC0000498284404900398304403900498A04249
:102BD00005DD0498001B0490029838440290039885
:102BE000A04205DD0398001B03900198404401902A
:102BF0000BF101001FFA80FB601C8345DADD09B090
:102C0000BDE8F08F2DE9F04104460D4616461F46FB
:102C10002B46324629462046FFF79CFF3B4622467C
:102C200029462046FFF796FF3B4632463946204666
:102C3000FFF790FF3B46324629463046FFF78AFFB2
:102C4000BDE8F0812DE9F04706460F469046002486
:102C500045460320A0EB48093CE07A1B91B23219AB
:102C600090B200F057FA3A1B91B2721990B200F08C
:102C700051FA3A1991B2721990B200F04BFA7A19DE
:102C800091B2321990B200F045FA7A1991B2321B22
:102C900090B200F03FFA3A1991B2721B90B200F074
:102CA00039FA7A1B91B2321B90B200F033FA3A1B18
:102CB00091B2721B90B200F02DFA641CB9F1000FB2
:102CC00003DAA000801D814404E0601B80000A300C
:102CD00081446D1EAC42C0DDBDE8F0872DE9F047B0
:102CE00004460D4616461F46DDF820A0D146E448AE
:102CF000807960B140F23F10001B83B240F23F1078
:102D0000801B81B23A46284600F016FA05E03B46A1
:102D100032462946204600F00FFAFFF788FD781B5F
:102D2000401C311B491C00FB01F804E039F8020B80
:102D30004FF0D84148805FEA0800A8F10108F5D1BA
:102D400040F23F13EF220021084600F0F5F9BDE8FC
:102D5000F0872DE9FF4F81B005460F4690461E468D
:102D60000097C848B0F80090A8F1200000F0FF08D4
:102D70000E9890BB00244BE00C2E07D108EB4800C6
:102D8000C14901EB800010F804A004E0BF4800EB4B
:102D9000081010F804A04FF0000B33E01AF0800F79
:102DA00003D0B848A0F8009003E0B9480088B549BE
:102DB00008803946284600F0ADF94FEA4A604FEAEC
:102DC000106A781C87B2AE480088A84206DCAD487D
:102DD000A0F8009005B0BDE8F08F1CE00098381A0C
:102DE000B0420BD1009F681C85B2A5480088A8425C
:102DF00003DCA448A0F80090ECE706E00BF101002A
:102E000000F0FF0BBBF1080FC8DB00BF601CC4B2B1
:102E1000B442B1DB44E0002440E00C2E07D108EBC3
:102E20004800994901EB800010F804A004E097489D
:102E300000EB081010F804A04FF0000B28E01AF087
:102E4000800F03D03946284600F064F94FEA4A6003
:102E50004FEA106A781C87B289484088A84203DC90
:102E60008848A0F80090B5E70098381AB0420BD116
:102E7000009F681C85B282480088A84203DC814814
:102E8000A0F80090A6E706E00BF1010000F0FF0BB0
:102E9000BBF1080FD3DB00BF601CC4B2B442BCDB83
:102EA0007848A0F8009000BF94E710B502460120D2
:102EB00000E050430B00A1F10104E1B2F9D110BDD3
:102EC0002DE9FF4F81B0074691461E460E9D4FF0FB
:102ED000000A00243BE0301B401EC1B20A20FFF76D
:102EE000E4FFB9FBF0F00A21B0FBF1F201FB1200A4
:102EF00000F0FF08BAF1000F16D1701EA04213DDDA
:102F0000B8F1000F0ED10023AB4605EBD571491087
:102F100001FB047188B200932B4620220299FFF72F
:102F200018FF12E04FF0010A0023AB4605EBD57104
:102F3000491001FB047188B200932B4608F130015F
:102F4000CAB20299FFF705FF00BF601CC4B2B442C9
:102F5000C1DB05B0BDE8F08F2DE9FF4F83B0064619
:102F600092461F46DDE910480020029000254FE000
:102F7000781B401EC1B20A20FFF797FFBAFBF0F0A2
:102F80000A21B0FBF1F201FB120000F0FF090298E8
:102F900050BB781EA84227DDB9F1000F22D118F0EE
:102FA000800F0FD008F00103A34604EBD471491041
:102FB00001FB056188B20093234630220499FFF794
:102FC000C8FE0EE008F00103A34604EBD4714910DB
:102FD00001FB056188B20093234620220499FFF784
:102FE000B8FE13E00120029008F00103A34604EBB1
:102FF000D471491001FB056188B20093234609F1A1
:103000003001CAB20499FFF7A4FE00BF681CC5B224
:10301000BD42ADDB07B0BDE8F08F2DE9F84F0446A7
:103020000D4690469946DDE90A6704F0FF0A08EB71
:1030300004001FFA80F809EB05001FFA80F916E07A
:10304000444502DB5446A81985B24D4500DB14E027
:10305000002300933A78334629462046FFF779FE4D
:10306000304606EBD67104EB61018CB27F1C3878D8
:103070007E2802DC38782028E2DA00BFBDE8F88F2D
:10308000320000202E000020FB3100086F360008BF
:1030900030000020704770477047754600F028F8F0
:1030A000AE4605006946534620F00700854618B035
:1030B00020B5FDF79BF8BDE820404FF000064FF02B
:1030C00000074FF000084FF0000B21F00701AC465D
:1030D000ACE8C009ACE8C009ACE8C009ACE8C0097C
:1030E0008D4670470446AFF300802046FDF769F82F
:1030F000004870473C00002001487047704700BFFF
:103100004000002001491820ABBEFEE72600020067
:103110007047000030B504460D4629462046FFF7AB
:10312000A0FBFFF784FB034800884FF0D84148809C
:1031300030BD00002E000020F0B504460F461546B5
:103140001E4615488088A0F5094199390ED144EAF8
:10315000052081B24420FFF75EFB39464520FFF78A
:103160005AFB31464620FFF756FB0FE02146502020
:10317000FFF751FB29465120FFF74DFB39465220FE
:10318000FFF749FB31465320FFF745FB3946204600
:10319000FFF767FBF0BD00003200002010B5FFF71D
:1031A000ABFF4FF00001016010BD00002053544DF3
:1031B0003332205446542074657374204F4B2120C1
:1031C00071776572747975696F705B5D6173646640
:1031D00067686A6B6C3B277A786376626E6D2C2E1B
:1031E0002F313233343536373839302D3D7E21405A
:1031F0002324255E262A28295F2B000000000000DA
:1032000000000000000000000000003F400000003F
:1032100000000000003000400030004000000009C5
:10322000000BC03D000BC03D00090018C024407FCA
:10323000E0224031800000180024C01B000D8032C5
:1032400040018003801C4027401C80074000401044
:10325000006000000000000000000000000000000E
:10326000001F80204040200000402020401F8000A0
:10327000000000090006001F80060009000000048D
:103280000004003F80040004000000001000600003
:10329000000000000000000400040004000400041A
:1032A00000000000000040000000000000000000DE
:1032B0002001C006003800400000001F8020402090
:1032C0004020401F800000000010403FC000400030
:1032D00000000018C0214022402440184000001087
:1032E000802040244024401B80000002000D00117B
:1032F000003FC0014000003C802440244024402383
:103300008000001F802440244034400380000030AF
:1033100000200027C03800200000001B802440242B
:103320004024401B8000001C0022C0224022401F7D
:1033300080000000000000084000000000000000C5
:103340000000000460000000000000000004000A0B
:10335000001100208040400900090009000900090F
:1033600000000000004040208011000A0004001806
:1033700000200023402400180000001F8020402768
:103380004029401F400000004007C039000F0001E5
:10339000C0004020403FC0244024401B8000001F4C
:1033A000802040204020403080000020403FC0204E
:1033B0004020401F80000020403FC024402E40306D
:1033C000C0000020403FC024402E00300000000F0D
:1033D000001080204022403380020020403FC00483
:1033E0000004003FC02040204020403FC02040203B
:1033F0004000000060202020203FC020002000204E
:10340000403FC024400B0030C0204020403FC0203F
:10341000400040004000C03FC03C0003C03C003FB3
:10342000C0000020403FC00C4023003FC020001FD0
:10343000802040204020401F80000020403FC024CA
:10344000402400180000001F802140214020E01F80
:10345000A0000020403FC02440260019C0004018B2
:10346000C024402440224031800000300020403FF2
:10347000C020403000000020003F80004000403F5E
:1034800080200020003E0001C007003800200038E6
:103490000007C03C0007C038000000204039C006CB
:1034A0000039C0204000002000384007C0384020CC
:1034B000000000304021C02640384020C0000000FD
:1034C0000000007FE0402040200000000070000C61
:1034D000000380004000000000402040207FE0000A
:1034E000000000000020004000200000000000005C
:1034F000100010001000100010001000000000402C
:1035000000000000000000000002800540054003AC
:10351000C0004020003FC004400440038000000081
:1035200000038004400440064000000000038004C3
:103530004024403FC0004000000380054005400398
:10354000400000000004401FC02440244020000030
:103550000002E0055005500650042020403FC00402
:1035600040040003C000400000044027C0004000A9
:1035700000000000100010041027E00000000020F0
:10358000403FC00140070004C00440204020403FAD
:10359000C000400040000007C0040007C004000352
:1035A000C00000044007C00440040003C000400005
:1035B0000003800440044003800000041007F0046E
:1035C00050044003800000000003800440045007C2
:1035D000F00010044007C002400400040000000096
:1035E0000006400540054004C00000000004001F24
:1035F00080044000400000040007800040044007B1
:10360000C000400400070004C0018006000400065A
:103610000001C0070001C006000000044006C00110
:103620000006C0044000000410071004E0018006FA
:103630000004000000044005C006400440000000F3
:1036400000000004007BE0402000000000000000BB
:1036500000FFF000000000000040207BE0040000BC
:1036600000000040008000400020002000400000DA
:10367000000000000000000000000000000000004A
:1036800000000000001FCC000C0000000000000043
:1036900000080030006000080030006000000002F8
:1036A0002003FC1E20022003FC1E2002200000003C
:1036B000000E1811043FFF10840C78000000000F6A
:1036C0000010840F3800C0077818840078000000CC
:1036D000780F8410C411240E9800E40084000808B8
:1036E0000068007000000000000000000000000002
:1036F000000000000007E01818200440020000004D
:103700000040022004181807E0000000000000023A
:1037100040024001800FF0018002400240000000A2
:1037200080008000800FF800800080008000000092
:1037300001000D000E00000000000000000000006D
:1037400000008000800080008000800080008000F9
:1037500000000C000C000000000000000000000051
:10376000000006001800600180060018002000001C
:103770000007F0080810041004080807F000000013
:1037800000080408041FFC000400040000000000FE
:10379000000E0C10141024104411840E0C000000B4
:1037A000000C1810041104110412880C70000000A1
:1037B0000000E00320042408241FFC002400000073
:1037C000001F98108411041104108810700000006C
:1037D0000007F00888110411041888007000000028
:1037E000001C00100010FC13001C00100000000062
:1037F000000E3811441084108411440E380000006B
:10380000000700088C10441044088807F0000000EE
:103810000000000000030C030C000000000000008A
:103820000000000001010600000000000000000090
:10383000000080014002200410080810040000026B
:10384000200220022002200220022002200000008C
:10385000001004080804100220014000800000004D
:10386000000E001200100C106C10800F00000003FE
:10387000E00C1813E4142417C4082807D000000033
:1038800004003C03C41C40074000E4001C0004107A
:10389000041FFC1104110411040E880070000003C1
:1038A000E00C1810041004100410081C1000001084
:1038B000041FFC100410041004080807F000001096
:1038C000041FFC1104110417C41004081800001090
:1038D000041FFC1104110017C010000800000003B1
:1038E000E00C181004100410441C78004000001074
:1038F000041FFC10840080008010841FFC10040052
:1039000000100410041FFC1004100400000000004C
:10391000030001100110011FFE1000100000001034
:10392000041FFC110403801464181C100400001010
:10393000041FFC1004000400040004000C0000102C
:10394000041FFC1F0000FC1F001FFC1004000010DF
:10395000041FFC0C04030000E010181FFC100007FB
:10396000F00808100410041004080807F000001004
:10397000041FFC10841080108010800F00000007CE
:10398000F0081810241024101C080A07F200001078
:10399000041FFC1104110011C011300E0C000400B2
:1039A000000E1C11041084108410441C38000018F0
:1039B00000100010041FFC1004100018000000107C
:1039C000001FF810040004000410041FF810001079
:1039D000001E0011E0001C007013801C0010001F6E
:1039E000C0103C00E01F0000E0103C1FC0000010B1
:1039F00004180C163401C001C01634180C10041041
:103A0000001C00130400FC13041C0010000000083C
:103A100004101C1064108413041C0410180000000F
:103A200000000000007FFE40024002400200000053
:103A30000030000C0003800060001C000300000048
:103A4000004002400240027FFE0000000000000033
:103A50000000002000400040004000200000000066
:103A6000010001000100010001000100010001004E
:103A700000400040002000000000000000000000A6
:103A8000000098012401440144014400FC0004109A
:103A9000001FFC0088010401040088007000000081
:103AA0000000700088010401040104008800000087
:103AB00000007000880104010411081FFC000400CC
:103AC0000000F8014401440144014400C800000022
:103AD00000010401040FFC1104110411001800007E
:103AE0000000D601290129012901C90106000010A1
:103AF000041FFC008401000100010400FC0004001C
:103B0000000104190419FC00040004000000000076
:103B100000000300010101190119FE00000000105E
:103B2000041FFC0024004001B4010C01040000004B
:103B300000100410041FFC00040004000000000139
:103B40000401FC0104010001FC0104010000FC016E
:103B50000401FC008401000100010400FC000400D9
:103B60000000F8010401040104010400F800000150
:103B70000101FF00850104010400880070000000BD
:103B8000000070008801040104010501FF0001012B
:103B900004010401FC008401040100018000000014
:103BA0000000CC012401240124012401980000001C
:103BB000000100010007F8010401040000000001F9
:103BC0000001F8000400040004010801FC000401E5
:103BD0000001800170000C001001600180010001F3
:103BE000F0010C003001C00030010C01F0010000B8
:103BF000000104018C00740170018C0104000001BB
:103C00000101810171000E001801600180010000B6
:103C1000000184010C013401440184010C00000006
:103C20000000000000000001003EFC4002400200D5
:103C300000000000000000FFFF0000000000000086
:103C400000400240023EFC010000000000000000B5
:103C50000060008000800040004000200020000044
:103C6000803C0008000000203C0000006C010008BF
:103C7000BC3C00083C0000206406000088010008ED
:103C80000000000001020304010203040607080902
:103C90000204060800A24A04000000000000000020
:103CA00001020304060708090000000001000000EB
:0C3CB000FFFF000000000000000000000A
:0400000508000131BD
:00000001FF
