:020000040800F2
:10000000A0070020E9010008D9200008DB20000833
:10001000DF200008E3200008E720000800000000BF
:10002000000000000000000000000000EB200008BD
:10003000ED20000800000000EF200008F12000087B
:10004000030200080302000803020008030200087C
:100050000302000803020008E52500080302000867
:10006000030200087D2600080302000803020008BE
:10007000030200080302000803020008030200084C
:10008000030200080302000803020008030200083C
:100090000302000803020008030200084F260008BC
:1000A000030200080302000803020008030200081C
:1000B00003020008272700080302000803020008C3
:1000C00003020008030200080302000803020008FC
:1000D00003020008030200080302000803020008EC
:1000E000212600080302000803020008030200089A
:1000F00003020008030200080302000803020008CC
:1001000003020008030200080302000803020008BB
:1001100003020008030200080302000803020008AB
:10012000030200080302000803020008030200089B
:1001300000F002F800F049F80AA090E8000C8244B0
:100140008344AAF10107DA4501D100F03EF8AFF28D
:10015000090EBAE80F0013F0010F18BFFB1A43F0A5
:1001600001031847DC620000FC620000103A24BF63
:1001700078C878C1FAD8520724BF30C830C144BF0C
:1001800004680C607047000000230024002500264E
:10019000103A28BF78C1FBD8520728BF30C148BFEA
:1001A0000B607047782904F02F85002070471FB539
:1001B00005F0E9FB9DE8030005F0A0F904F086FED8
:1001C0001FBD10B504F0EBFE10BD04F04EFF11464C
:1001D000FFF7EDFF01F0BAFE05F038F903B4FFF7C1
:1001E000F0FF03BC05F020FB0948804709480047A1
:1001F000FEE7FEE7FEE7FEE7FEE7FEE7FEE7FEE7D7
:10020000FEE7FEE704480549054A064B7047000033
:10021000BD21000831010008A0010020A007002036
:10022000A0030020A003002036490143364A116094
:10023000704770B5002100230F22C4784CB3324CB4
:10024000246804F4E064C4F5E0644FEA1421C1F1C9
:10025000040322FA01F2447804FA03F1847804EAF0
:10026000020444EA01014FEA0111284C0678A15525
:10027000047804F01F054FF0010404FA05F4057832
:100280004FEA65154FF0E02606EB8505C5F80041FD
:1002900009E0047804F01F050124AC401C4D0678E9
:1002A000761145F8264070BD1A4A0A4002431A4B9F
:1002B0001A60704741B1194A126842EA00024FF0D1
:1002C000E023C3F8102D07E0144A126822EA000266
:1002D0004FF0E023C3F8102D7047042808D14FF0E9
:1002E000E021096941F004014FF0E022116107E0CB
:1002F0004FF0E021096921F004014FF0E022116183
:10030000704700000000FA050CED00E000E400E09A
:1003100080E100E080FFFF1F08ED00E010ED00E04D
:1003200010B50446CA48844208D10121042000F0D7
:1003300024FB0021042000F020FB46E0C548844255
:1003400008D10121082000F018FB0021082000F04E
:1003500014FB3AE0C048844208D10121102000F08B
:100360000CFB0021102000F008FB2EE0BB4884426B
:1003700008D10121202000F000FB0021202000F006
:10038000FCFA22E0B648844208D10121402000F066
:10039000F4FA0021402000F0F0FA16E0B14884425F
:1003A00008D10121802000F0E8FA0021802000F02F
:1003B000E4FA0AE0AC48844207D10121801500F03C
:1003C000DCFA0021A01500F0D8FA10BD10B501210B
:1003D000084600F0D2FA0021012000F0CEFA10BD4C
:1003E0002DE9F041024600250026002000230024CC
:1003F000002791F803C00CF00F0591F803C01CF022
:10040000100F03D091F802C04CEA0505B1F800C006
:100410001CF0FF0F31D0146800202BE04FF0010CCE
:100420000CFA00F3B1F800C00CEA03069E4220D19A
:1004300083004FF00F0C0CFA03F7BC4305FA03FCE2
:100440004CEA040491F803C0BCF1280F06D14FF028
:10045000010C0CFA00FCC2F814C00AE091F803C0C9
:10046000BCF1480F05D14FF0010C0CFA00FCC2F8AA
:1004700010C0401C0828D1D31460B1F800C0BCF1F2
:10048000FF0F34DD546800202EE000F1080C4FF01F
:10049000010808FA0CF3B1F800C00CEA03069E420A
:1004A00021D183004FF00F0C0CFA03F7BC4305FA7F
:1004B00003FC4CEA040491F803C0BCF1280F05D1F9
:1004C00000F1080C08FA0CF8C2F8148091F803C087
:1004D000BCF1480F07D100F1080C4FF0010808FAF1
:1004E0000CF8C2F81080401C0828CED35460BDE838
:1004F000F0814FF6FF710180022181700421C170EB
:1005000070470246002093680B4201D0012000E0B2
:10051000002070470146886880B27047024600207C
:10052000D3680B4201D0012000E000207047014653
:10053000C86880B2704701617047416170470AB175
:10054000016100E041617047C16070474FF4803243
:100550000A438261816182618269826970470246D1
:100560000020424B18684FF68073184040EA021092
:1005700008433E4B186070473D49C8617047F0B56D
:100580000A46002300240021002500F00046B6F1B1
:10059000004F02D1354EF16901E0344E7168C0F36D
:1005A000034583B200F44016B6F5401F08D121F090
:1005B00070612E4E766826F070662C4F7E6012E0D9
:1005C00000F48016B6F5801F06D1032606FA05F45E
:1005D000A14341F0706106E0460D360103FA06F6CC
:1005E000B14341F0706122B1460D360103FA06F6BF
:1005F000314300F00046B6F1004F02D11B4EF161CD
:1006000001E01A4E7160F0BD30B500228B071C0F5F
:100610000F2303FA04F2154B08338C1053F82430DF
:100620009343124C08348D1044F8253023468C1027
:1006300053F824308C07240F00FA04F423430B4CA6
:1006400008348D1044F8253030BD0A4908607047E1
:1006500000080140000C014000100140001401405E
:1006600000180140001C0140002001400000014032
:1006700000002042DC002042DB48006840F001001E
:10068000D949086008464068D8490840D6494860BA
:1006900008460068D6490840D34908600846006803
:1006A00020F4802008600846406820F4FE0048607E
:1006B0004FF41F0088607047CB49096821F48031EE
:1006C000C94A11601146096821F480211160B0F512
:1006D000803F03D0B0F5802F0ED106E0C2490968F3
:1006E00041F48031C04A116007E0BF49096841F414
:1006F000A021BD4A116000E000BF00BF704710B5E7
:1007000001460022002300204A11012A02D1B64CE2
:10071000236806E0022A02D1B34C236A01E0B24CFE
:10072000636A01F01F02012494401C4201D00120A1
:1007300000E0002010BD70B500240025002600BF99
:100740003120FFF7DCFF0646641CB4F5A06F01D032
:10075000002EF5D03120FFF7D2FF08B1012500E0CF
:100760000025284670BD014600209F4A106820F0F1
:10077000F80040EAC100106070479E490860704769
:1007800002460020984B586820F47C1042EA01038E
:100790001843954B58607047964908667047014664
:1007A0000020914A506820F00300084350607047D1
:1007B0008D48406800F00C007047014600208A4ACE
:1007C000506820F0F0000843506070470146002058
:1007D000854A506820F4E060084350607047014645
:1007E0000020814A506820F4605040EAC100506007
:1007F000704729B17C4A527A02437B4B5A7206E019
:10080000794A527AC343DBB21A40774B5A72704727
:1008100079490860704701460020734A506820F407
:1008200040400843506070470021744A11706E4A7E
:1008300082F82010012802D0042808D103E0012109
:100840006E4A117004E005216C4A117000E000BF8F
:1008500000BF70476A49086070476349096A0143ED
:10086000614A1162704767490860704730B50021DE
:100870000022002400235C4D6D6805F00C0121B1BD
:10088000042905D0082923D105E05F4D056022E049
:100890005D4D05601FE0544D6D6805F47012524DBA
:1008A0006D6805F48034022505EB92421CB9574D62
:1008B000554305600BE04C4D6D6815F4003F03D0C7
:1008C000524D5543056002E04F4D5543056002E02F
:1008D0004D4D056000BF00BF434D6D6805F0F00150
:1008E00009094B4D6B5C0568DD4045603E4D6D6808
:1008F00005F4E061090A464D6B5C4568DD408560A2
:10090000394D6D6805F46051C90A414D6B5C45680D
:10091000DD40C560344D6D6805F44041890B3D4DA7
:100920006B5CC568B5FBF3F5056130BD29B12E4A96
:10093000526902432C4B5A6104E02B4A52698243AC
:10094000294B5A61704729B1274A92690243264BC5
:100950009A6104E0244A92698243234B9A6170476A
:1009600029B1214AD26902431F4BDA6104E01E4AD1
:10097000D26982431C4BDA61704729B11A4AD268A6
:100980000243194BDA6004E0174AD2688243164BDF
:10099000DA60704729B1144A12690243124B1A6196
:1009A00004E0114A126982430F4B1A6170471A49D9
:1009B000086070470F49C86470470B49C871704799
:1009C0000948406A40F08070074948627047014614
:1009D0000020054A92680A4201D0012000E0002070
:1009E0007047014988727047001002400000FFF80C
:1009F000FFFFF6FE00004242D800424220100240B3
:100A0000800442423C04424200127A0000093D0048
:100A1000000000201000002040044242002047490E
:100A200008604749C1F804044649086001F104011F
:100A30000860454845490860704700213F49827970
:100A4000DAB33F4AD2F8002403689A433C4BC3F818
:100A500000241A46D2F8042403689A4301F10403DF
:100A60001A60027911440A68036842EA03020A60C4
:100A7000334AD2F80824036822EA0302304BC3F851
:100A800008241A46D2F80C24036822EA0302304BE9
:100A90001A604279102A11D1294AD2F80824036831
:100AA0001A43274BC3F808241A46D2F80C240368CB
:100AB0001A43234BC3F80C240EE007E01F49427988
:100AC00011440A6803681A430A6005E00279114478
:100AD0000A6803689A430A60704700210160017147
:100AE0000C2141710021817170471A49096841EA5E
:100AF0000001134AC2F81014704701460020134A3F
:100B000012680A4201D0012000E0002070470F491E
:100B100008607047014600200022084B1B6803EA6A
:100B20000102074BD3F814340B4202D00AB1012062
:100B300000E000207047054908607047000401404C
:100B40000000014008040140FFFF0F0014040140B1
:100B50000C0401401004014010B50446FF488442D3
:100B600008D10121C014FFF708FF0021E014FFF7AE
:100B700004FFC4E0B4F1804F08D101210846FFF71B
:100B800009FF00210120FFF705FFB8E0F448844287
:100B900008D101210220FFF7FDFE00210220FFF70E
:100BA000F9FEACE0EF48844208D101210420FFF7B0
:100BB000F1FE00210420FFF7EDFEA0E0EA488442A8
:100BC00008D101210820FFF7E5FE00210820FFF7EA
:100BD000E1FE94E0E548844208D101211020FFF7AE
:100BE000D9FE00211020FFF7D5FE88E0E0488442BE
:100BF00008D101212020FFF7CDFE00212020FFF7A2
:100C0000C9FE7CE0DB48844208D101214014FFF793
:100C1000B4FE00216014FFF7B0FE70E0D6488442B5
:100C200009D10121C804FFF7A8FE00214FF40020DC
:100C3000FFF7A3FE63E0D148844209D101210805F2
:100C4000FFF79BFE00214FF48010FFF796FE56E061
:100C5000CB48844209D101214805FFF78EFE0021CF
:100C60004FF40010FFF789FE49E0C648844208D1DE
:100C700001214020FFF78EFE00214020FFF78AFE71
:100C80003DE0C148844208D101218020FFF782FE67
:100C900000218020FFF77EFE31E0BC48844208D16D
:100CA00001218015FFF776FE0021A015FFF772FEE7
:100CB00025E0B748844209D101210804FFF75DFE11
:100CC00000214FF48030FFF758FE18E0B14884420D
:100CD00009D101214804FFF750FE00214FF40030F4
:100CE000FFF74BFE0BE0AC48844208D10121880499
:100CF000FFF743FE00214FF48020FFF73EFE10BDBA
:100D000000220288954B98420ED09A4B98420BD005
:100D1000B0F1804F08D0924B984205D0914B984249
:100D200002D0914B984204D14FF68F731A404B88F2
:100D30001A438E4B984207D08D4B984204D04FF601
:100D4000FF431A40CB881A4302808B8883850B8827
:100D50000385824B98420BD0864B984208D08C4B2F
:100D6000984205D08B4B984202D08B4B984201D1D0
:100D70000B7A038601238382704770B5002400221A
:100D80000023058C4FF6FE7635400584028C83885F
:100D9000048B4FF68F752C40B51E2C400D882C43CC
:100DA000751E2A400D892A434D882A436B4DA8425F
:100DB0000BD0704DA84208D0754DA84205D0754D96
:100DC000A84202D0744DA84213D14FF6F7752A40BD
:100DD0004D892A434FF6FB752A408D882A434FF6EA
:100DE000FF652B404FF6FF552B408D892B43CD8956
:100DF0002B4383800483CD888586028470BD70B5C3
:100E0000002400220023058C4FF6EF763540058440
:100E1000028C8388048B48F6FF752C404FF6FF4503
:100E20002C400D882D0644EA15444FF6DF752A4004
:100E30000D892D0542EA15424D882D0542EA1542DD
:100E4000464DA84202D04B4DA8421BD14FF67F75AC
:100E50002A404D892D0542EA15424FF6BF752A40BA
:100E60008D882D0542EA15424FF6FF352B404FF293
:100E7000FF752B408D89AD0443EA1543CD89AD0440
:100E800043EA154383800483CD880587028470BDBF
:100E900070B5002400220023058C4FF6FF66354014
:100EA0000584028C8388848B4FF68F752C404FF617
:100EB000FC752C400D882C434FF6FF552A400D89B8
:100EC0002D0642EA15424D882D0642EA1542234D71
:100ED000A84202D0274DA8421BD14FF2FF752A40ED
:100EE0004D892D0642EA15424FF6FF352A408D887E
:100EF0002D0642EA15424EF6FF752B404DF6FF7562
:100F00002B408D892D0543EA1543CD892D0543EAF4
:100F1000154383808483CD888587028470BD70B536
:100F2000002200230024058C4EF6FF763540058410
:100F3000038C8488828B48F6FF752A404FF6FF4564
:100F40002A400D882D0642EA15424DF6FF752B40CA
:100F50000D892D0743EA15434D881FE0002C014001
:100F60000004004000080040000C00400010004059
:100F70000014004000340140004C0140005001408A
:100F80000054014000180040001C004000200040B8
:100F90000040014000440140004801402D0743EA61
:100FA0001543F94DA84202D0F84DA84206D14BF6A0
:100FB000FF752C408D89AD0544EA154484808283F9
:100FC000CD88A0F84050038470BD828B4FF2FF3370
:100FD0001A408283828B0B0642EA13428283704757
:100FE000F0B50C461546002200210026078C4EF66F
:100FF000FF7C07EA0C070784828B018C27073E0CD5
:1010000040F6FF473A402F0642EA17421F0742EADE
:101010001742DD4FB8420ED0DC4FB8420BD0B0F1D2
:10102000804F08D0DA4FB84205D0DA4FB84202D02C
:10103000D94FB84206D14DF6FF77394046F4805774
:10104000394305E047F6FF57394044F480573943A8
:1010500082830184F0BD828B4FF6F3731A40828342
:10106000828B0A4382837047F0B50C4615460022F6
:1010700000210026078C4FF6FF6C07EA0C07078457
:10108000828B018C27063E0C4FF60C773A401F05E9
:1010900045EA17473A43BC4FB8420ED0BB4FB8425F
:1010A0000BD0B0F1804F08D0B94FB84205D0B94F3E
:1010B000B84202D0B84FB84206D14FF6FF57394078
:1010C00046F48077394305E04FF2FF57394044F446
:1010D0008077394382830184F0BD028B4FF2FF3366
:1010E0001A400283028B0B0642EA134202837047C6
:1010F000F0B50C461546002200210026078C4FF65D
:10110000EF7C07EA0C070784028B018C27053E0C55
:1011100040F6FF473A401F0742EA17422F0642EACD
:101120001742994FB8420ED0984FB8420BD0B0F149
:10113000804F08D0964FB84205D0964FB84202D0A3
:10114000954FB84206D14FF6DF77394046F0100789
:10115000394305E04FF65F77394044F010073943D3
:1011600002830184F0BD028B4FF6F3731A400283B1
:10117000028B0A4302837047F0B50C4615460022E5
:101180000021068C4FF6FE773E400684028B018CD0
:101190004FF60C7632401E0545EA164632437A4E2B
:1011A000B0420ED0794EB0420BD0B0F1804F08D093
:1011B000774EB04205D0774EB04202D0764EB04264
:1011C00006D14FF6FD76314044F00106314305E08B
:1011D0004FF6F576314044F0010631430283018435
:1011E000F0BD70B505460C46674885420ED067488D
:1011F00085420BD0B5F1804F08D06548854205D0B7
:101200006448854202D06448854200D100E000BFB6
:10121000208850B92389A28861882846FFF7ACFF4F
:10122000E1882846FFF79FFF25E0208804280AD19F
:101230002389A28861882846FFF75AFFE18828465B
:10124000FFF74BFF17E0208808280AD12389A288DE
:1012500061882846FFF708FFE1882846FFF7FBFE74
:1012600009E02389A28861882846FFF7B9FEE18852
:101270002846FFF7AAFE70BD2DE9F04105460C4651
:1012800000260127608808B9022600E00026A08811
:10129000012801D1022700E001272088A0B9238975
:1012A000A28861882846FFF767FFE1882846FFF794
:1012B0005AFF23893A4631462846FFF719FFE1884D
:1012C0002846FFF70AFF13E02389A2886188284691
:1012D000FFF70EFFE1882846FFF7FFFE23893A4615
:1012E00031462846FFF748FFE1882846FFF73BFFD5
:1012F000BDE8F0810A884B881A438B881A43CB8853
:101300001A430B891A434B891A438B891A43A0F855
:10131000442070474FF6FF71818000210180C18019
:101320004180017270470021018041808180C1802D
:10133000018141818181C18170470021018041800B
:10134000012181800021C18001817047002101803D
:1013500041808180C180018141818181704721B1BB
:10136000028842F00102028004E002884FF6FE7318
:101370001A400280704789B1B0F8442042F400421C
:10138000A0F8442010E00000002C0140003401408F
:101390000004004000080040000C0040B0F8442069
:1013A000C2F30E02A0F84420704710B51AB1838929
:1013B0000B43838104E08389CC43A4B2234083811F
:1013C00010BD8182704741EA0203A0F8483070479F
:1013D00010B51AB183890B43838104E08389CC4320
:1013E000A4B22340838110BD01894FF6F8721140E9
:1013F000018170470A46002101894FF68F73194019
:1014000011430181704730B504460D4629462046F8
:10141000FFF7F0FF208940F00700208130BD2DE963
:10142000F04104460D4616461F46602D06D13B4648
:10143000012231462046FFF75BFE05E03B460122D4
:1014400031462046FFF798FE29462046FFF7D2FF97
:10145000208940F007002081BDE8F08130B50C46BE
:1014600000210189C9B21D0642EA154525432943D9
:10147000018130BD2DE9F04105460E4617469846DC
:10148000002443463A4631462846FFF7E7FF2C89B9
:101490004FF6F8710C4044F007044FF68F710C4082
:1014A00044F070042C81BDE8F081F0B504460D468F
:1014B00016461F463B46324629462046FFF7CEFFDA
:1014C000208940F480402081F0BD018582827047F0
:1014D0000A46002101884FF68F731940114301809D
:1014E0007047F0B50C4615461E4600210022002329
:1014F0000189028B038C4FF6F877394021434FF670
:10150000FC473A4040F201173A434FF6DD773B4043
:10151000370545EA17473B43018102830384F0BD49
:101520000A460021018B4FF68F7319401143018346
:1015300070470A460021018B48F6FF7319401306D5
:1015400041EA1341018370470A460021818B4FF61F
:101550008F7319401143818370470A460021818BA4
:1015600048F6FF731940130641EA1341818370471F
:1015700021B1028842F08002028004E002884FF626
:101580007F731A400280704721B1828842F00402C2
:10159000828004E082884FF6FB731A408280704795
:1015A00021B1828842F00802828004E082884FF6EE
:1015B000F7731A408280704721B1828842F001029D
:1015C000828004E082884FF6FE731A408280704762
:1015D0000A460021018B4FF6F7731940114301832E
:1015E00070470A460021018B4FF2FF731940130622
:1015F00041EA1341018370470A460021818B4FF66F
:10160000F77319401143818370470A460021818B8B
:101610004FF2FF731940130641EA1341818370476B
:101620000A460021018B4FF6FB73194011430183D9
:1016300070470A460021018B4FF6FF33194013060D
:1016400041EA1341018370470A460021818B4FF61E
:10165000FB7319401143818370470A460021818B37
:101660004FF6FF331940130641EA13418183704757
:101670000A460021018B4FF67F7319401143018305
:1016800070470A460021018BC1F30E01130641EA9F
:101690001341018370470A460021818B4FF67F7307
:1016A00019401143818370470A460021818BC1F3A1
:1016B0000E01130641EA1341818370470A46002157
:1016C000018C4FF6FD7319401143018470470A469F
:1016D0000021018C4FF6F7731940114301847047C4
:1016E0000A460021018C4FF6DF731940130541EAC9
:1016F0001341018470470A460021018C4FF67F7325
:101700001940130541EA1341018470470A4600213C
:10171000018C4FF6FF531940130641EA134101842F
:1017200070470A460021018C4FF2FF7319401306DF
:1017300041EA1341018470470A460021018C4DF6AD
:10174000FF731940130741EA13410184704730B514
:10175000002301248C40A3B2048CDD43ADB22C40A5
:101760000484048C02FA01F5ADB22C43048430BD2C
:1017700030B5002304248C40A3B2048CDD43ADB209
:101780002C400484048C02FA01F5ADB22C4304848D
:1017900030BD70B5034600200024184618300125DE
:1017A0008D40ACB21D8CE643B6B235401D8409B104
:1017B000082909D100EB6100056825F07005056076
:1017C0000568154305600CE00D1FADB200EB650028
:1017D000056825F4E04505600568160645EA1645E6
:1017E000056070BD21B1028842F00202028004E06F
:1017F00002884FF6FD731A400280704721B10288BB
:1018000042F00402028004E002884FF6FB731A40A3
:101810000280704721B1828842F08002828004E019
:1018200082884FF67F731A408280704702884FF695
:10183000F7731A40028002880A4302807047828848
:101840004FF68F731A40828082880A4382807047E5
:1018500002894FF6F8731A40028102890A43028115
:10186000704702894FF67F731A40028102890A434A
:1018700002817047818470478185704781867047F7
:101880000187704781877047A0F840107047028831
:101890004FF6FF431A40028002880A4302807047D5
:1018A0000146888E70470146088F70470146888F31
:1018B00070470146B1F8400070470146888C704778
:1018C0000146088D704702460020138A0B4201D062
:1018D000012000E000207047CA430282704730B503
:1018E0000246002000230024158A05EA0103958999
:1018F00005EA010413B10CB1012000E0002030BD65
:10190000CA4302827047000030B943F2DB014FF056
:10191000204242F8201005E043F2D2014FF020426D
:1019200042F820106FF07042411C4FF0204343F802
:10193000212011461A4602EB8002C2F804117047BA
:1019400010280AD118214FF020421166402151661B
:101950004FF0FC319166D16610E01821F84A116011
:101960004FF040014FF02042C2F884104FF0FC319C
:10197000F44A11604FF02042C2F88C1070471820D2
:10198000F14908604FF000004FF02041C1F8A40079
:101990004FF0FC30ED49086001F10401086001F1ED
:1019A000040108607047D0E901121143C268114375
:1019B000026911434269114382691143C2691143AB
:1019C000026A1143426A1143826A1143C26A114397
:1019D000026B11434FF02043026843F822108168E4
:1019E000082908D11A46016852F8211041F0400137
:1019F000026843F82210416B0968426B526841EA61
:101A00000211426B926841EA0221426BD26841EABC
:101A10000241426B126941EA0251426B526941EA4A
:101A20000261426B926911430268521C4FF02043DD
:101A300043F82210C16AB1F5804F1AD1816B096851
:101A4000826B526841EA0211826B926841EA02217C
:101A5000826B126941EA0251826B526941EA02616A
:101A6000826B92691143026803EB8202C2F804118F
:101A700008E06FF070414FF02043026803EB8202F0
:101A8000C2F80411704730B50021002200234468D9
:101A900044F0080485682C43C5682C4305692C4331
:101AA000456944EA4524856944EA4531C4692468A6
:101AB000C5696D6844EA0524C569AD6844EA054412
:101AC000C569ED6844EA0562046A2468056A6D68C0
:101AD00044EA0524056AAD6844EA0544056AED68F0
:101AE00044EA05630468102C05D14FF020442166B8
:101AF000A266E36607E0924C21604FF02044C4F8F0
:101B00008820934C236030BD016841F01001426889
:101B100041EA4221826841EA42318B4A1160C16840
:101B20000968C268526841EA0221C268926841EAC3
:101B30000241C268D26841EA0261844A11600169C7
:101B400009680269526841EA02210269926841EA21
:101B500002410269D26841EA02617E4A116041692C
:101B600009684269526841EA02214269926841EA81
:101B700002414269D26841EA02614FF02042C2F854
:101B8000B010704700210160022141600021816096
:101B9000C160016141618161C16101624FF48051A5
:101BA0004162490081620021C16201630F21426BE1
:101BB0001160426B5160FF21426B91600F21426BBB
:101BC000D160426B1161426B51610021426B9161A6
:101BD0000F21826B1160826B5160FF21826B9160DB
:101BE0000F21826BD160826B1161826B5161002188
:101BF000826B91617047102101600021416081601A
:101C0000C160016141618161FC21C2691160C269E9
:101C10005160C2699160C269D160026A1160026A52
:101C20005160026A9160026AD160704700210160D0
:101C300041608160FC21C2681160C2685160C26865
:101C40009160C268D16002691160026951600269E5
:101C500091600269D16042691160426951604269D4
:101C600091604269D160704751B14FF0204252F803
:101C7000202042F001024FF0204343F8202009E0E9
:101C80004FF0204252F82020334B1A404FF02043AF
:101C900043F82020704799B1102808D14FF0204216
:101CA000126E42F004024FF020431A661DE0244AEF
:101CB000126842F004024FF02043C3F8802014E081
:101CC000102809D14FF02042126E234BDB1E1A4020
:101CD0004FF020431A6608E0194A12681F4B02EAC7
:101CE00003024FF02043C3F88020704740B11649EB
:101CF000096841F004014FF02042C2F8A01008E04A
:101D000011490968154A01EA02014FF02042C2F860
:101D1000A010704799B1102808D14FF02042126EE0
:101D200042F040024FF020431A662DE0044A126848
:101D300042F040024FF02043C3F8802024E00FE03F
:101D4000800000A0880000A0A00000A0A80000A0C3
:101D50008C0000A0AC0000A0FEFF0F00FBFF0F00F6
:101D6000102808D14FF02042126E684B1A404FF0F5
:101D700020431A6608E0664A1268644B02EA0302CE
:101D80004FF02043C3F880207047014600201029FF
:101D900003D14FF02042506F01E05E4A1068704757
:101DA00010B5F2B1102807D14FF020435B6E0B4302
:101DB0004FF02044636632E0B0F5807F08D1564B87
:101DC0001B6843EA01034FF02044C4F8843026E046
:101DD000524B1B6843EA01034FF02044C4F8A4307F
:101DE0001DE0102807D14FF020435B6E8B434FF06E
:101DF0002044636613E0B0F5807F08D1464B1B6832
:101E000023EA01034FF02044C4F8843007E0434B39
:101E10001B6823EA01034FF02044C4F8A43010BD2E
:101E200010B5024600200023102A03D14FF02044B1
:101E3000636E07E0B2F5807F02D1374C236801E082
:101E4000364C23680B4201D0012000E0002010BD79
:101E5000102807D14FF02042526E8A434FF02043A2
:101E60005A6613E0B0F5807F08D12B4A126822EA47
:101E700001024FF02043C3F8842007E0274A12688C
:101E800022EA01024FF02043C3F8A420704770B546
:101E900002460020002300240025102A03D14FF021
:101EA0002046736E07E0B2F5807F02D11A4E336888
:101EB00001E01A4E336803EA010403EAD10514B1C4
:101EC0000DB1012000E0002070BD102808D14FF0B6
:101ED0002042526E22EAD1024FF020435A6613E0AC
:101EE000B0F5807F08D10C4A126822EAD1024FF087
:101EF0002043C3F8842007E0084A126822EAD1028E
:101F00004FF02043C3F8A42070470000BFFF0F002C
:101F1000800000A0940000A0840000A0A40000A005
:101F200010B500F04BF900F0C9F900F02FFA00F0FD
:101F300049FA00F025FA00F0EDFA41F61F4141F2AE
:101F4000873000F0C3FB00F037FF10BD86B00024DF
:101F5000FFF7E6FF4FF478404A4908804A488288F4
:101F60004AA103A802F014FE8BE00C2C41D2DFE85A
:101F700004F0060B0F13181D22272C31363B4FF6A9
:101F8000FF7000F003FF34E0002000F0FFFE30E0BF
:101F90001F2000F0FBFE2CE04FF4784000F0F6FE2E
:101FA00027E04FF61F0000F0F1FE22E04FF4FC6046
:101FB00000F0ECFE1DE047F6FF7000F0E7FE18E0D1
:101FC0004FF6E07000F0E2FE13E04FF6074000F03D
:101FD000DDFE0EE048F2304000F0D8FE09E04CF2A1
:101FE000186000F0D3FE04E04BF6404000F0CEFE57
:101FF00000BF00BF4FF478402249088026A310227A
:10200000CDE900231346C82232211E2002F077FDBD
:1020100026A31022CDE900231346C82246211E2004
:1020200002F06DFD24A31022CDE900231346C8223F
:102030005A211E2002F063FD03AB1022CDE90023DC
:102040001346C8226E211E2002F059FD1EA3102245
:10205000CDE900231346C82282211E2002F04FFD45
:10206000601CC4B20C2C00D100241A48006808B9C6
:10207000012000E00020174908604FF47A7000F05A
:1020800054F972E72E000020400000204C43442009
:1020900049443A25303458005761725368697020BA
:1020A00053544D3332205E5F5E0000005446544C62
:1020B000434420544553540041544F4D40414C49F2
:1020C000454E54454B000000323031322F392F3508
:1020D00000000000A8812342704700BFFEE700BF58
:1020E000FEE700BFFEE700BFFEE77047704770479E
:1020F0007047000000210020674A126842F48032D5
:10210000654B1A6000BF644A126802F40030491C33
:1021100010B9B1F5A06FF6D15F4A126812F4003F12
:1021200001D0012000E00020012842D15B4A126862
:1021300042F01002594B1A601A46126822F003024C
:102140001A601A46126842F002021A60524A526835
:10215000514B5A601A4652685A601A46526842F405
:1021600080625A601A46526822F47C125A601A46FB
:10217000526842F4E8125A601A46126842F08072BD
:102180001A6000BF444A126812F0007FFAD0424A37
:10219000526822F00302404B5A601A46526842F0DD
:1021A00002025A6000BF3C4A526802F00C02082A40
:1021B000F9D1704710B5FFF79DFF10BD10B5364837
:1021C000006840F00100344908600846406834491E
:1021D00008403149486008460068324908402E49A5
:1021E00008600846006820F48020086008464068BF
:1021F00020F4FE0048604FF41F008860FFF7DAFF0C
:102200004FF000602849086010BD10B50021002083
:102210000022214B5B6803F00C0121B1042906D098
:10222000082928D107E0214B214C236027E01F4BD0
:102230001F4C236023E0184B5B6803F47010164BAF
:102240005B6803F48032022303EB904022B9194B00
:102250004343174C23600DE00F4B5B6813F4003FC2
:1022600004D0144B4343124C236003E00F4B434311
:102270000F4C236003E00D4B0D4C236000BF00BFEB
:10228000054B5B68C3F303130B4CE15C084B1B6805
:10229000CB40074C236010BD0010024000200240DC
:1022A0000000FFF8FFFFF6FE08ED00E000127A00E4
:1022B0001400002000093D001800002010B56FF048
:1022C0000400FEF70AF82A4800682A49B0FBF1F03A
:1022D00029490870084600784FF47A714843274925
:1022E000088010BD0146244A12784A434FF0E0238B
:1022F0005A6100229A611A46126942F001021A617B
:1023000000BF4FF0E022106910F0010F02D010F46E
:10231000803FF6D04FF0E022126922F001024FF028
:10232000E0231A6100229A6170470146134A12881D
:102330004A434FF0E0235A6100229A611A4612691B
:1023400042F001021A6100BF4FF0E022106910F064
:10235000010F02D010F4803FF6D04FF0E022126956
:1023600022F001024FF0E0231A6100229A617047C7
:102370001400002000127A00280000202A0000200B
:1023800010B54FF4A060FDF74FFF10BD08B5012157
:102390008020FEF7D8FA4FF4F860ADF80000102066
:1023A0008DF8030003208DF8020069460448FEF70B
:1023B00017F84FF4F8610248FEF7BDF808BD0000B9
:1023C000001C014008B501210820FEF7BCFA0420DA
:1023D000ADF8000010208DF8030003208DF80200F6
:1023E00069460448FDF7FCFF04210248FEF7A5F802
:1023F00008BD0000000C014008B501213420FEF7A3
:10240000A2FA40F20110ADF8000048208DF8030058
:1024100069463C48FDF7E4FF4FF40050ADF800007A
:1024200048208DF8030069463748FDF7D9FF08209A
:10243000ADF8000048208DF8030069463348FDF7E9
:10244000CFFF08BD10B5044614B101203049087013
:102450002F48007890B301212A48FEF752F880B146
:102460004FF400512848FEF74CF850B14FF48071FA
:102470002448FEF746F820B108212448FEF741F829
:10248000E0B90A20FFF751FF00202149087001211F
:102490001C48FEF736F808B9012010BD4FF4005172
:1024A0001948FEF72EF808B90220F6E74FF48071BC
:1024B0001448FEF726F810B90320EEE706E00821DD
:1024C0001248FEF71EF8D8B90420E6E701210D48AE
:1024D000FEF717F8012813D141030B48FEF711F856
:1024E00001280DD101020748FEF70BF8012807D19A
:1024F00008210648FEF705F8012801D104490870B3
:102500000020CAE70008014000100140001401400B
:102510002C0000200EB5FFF76FFF01210846FEF7E3
:1025200012FA08210020FEF76FF840F20110019026
:1025300000208DF808000C208DF8090001208DF88E
:102540000A0001A8FEF779FA0D210220FEF75CF8D7
:102550004FF40050019001A8FEF76FFA03210846DE
:10256000FEF752F80820019001A8FEF766FA06204F
:102570008DF8000002208DF8010000208DF8020087
:1025800001208DF803006846FDF753FE28208DF8E2
:10259000000002208DF8010001208DF802008DF866
:1025A00003006846FDF745FE17208DF80000022065
:1025B0008DF801008DF8020001208DF803006846B7
:1025C000FDF737FE09208DF8000002208DF801008C
:1025D00003208DF8020001208DF803006846FDF706
:1025E00028FE0EBD10B50A20FFF79FFE01212E48E0
:1025F000FDF787FF80B92D48006808B9012000E089
:1026000000202A4908602A48D0F8980108B901201A
:1026100000E00020274908600120FEF78CFA10BD79
:1026200010B50A20FFF781FE4FF400512248FDF754
:1026300068FF38B92148006808B9012000E000208F
:102640001E4908604FF40050FEF775FA10BD10B532
:102650000A20FFF76AFE4FF480711348FDF751FF1F
:1026600038B91748006808B9012000E00020144973
:1026700008604FF48070FEF75EFA10BD10B50A20B6
:10268000FFF753FE08210F48FDF73BFF38B90E480E
:10269000006808B9012000E000200B49086008200C
:1026A000FEF749FA10BD0000000801408881214270
:1026B0000080234298812342001001409C812342E4
:1026C000A081234200140140A48123427FB5054626
:1026D0000C4601210220FEF743F9ADF80850ADF891
:1026E00004400020ADF80A00ADF8060001A9384802
:1026F000FEF706FB012211463548FEF756FE1D2067
:102700008DF8000000208DF8010003208DF80200F4
:1027100001208DF803006846FDF78BFD01212C4850
:10272000FEF71DFE7FBD10B501212948FFF7D7F840
:1027300058B101212648FFF7E3F82648006808B998
:10274000012000E000202349086010BD30B589B0A9
:1027500005460C4601210220FEF702F9012109205D
:10276000FEF7F1F801211C48FDF709FF2020ADF824
:10277000200018208DF8230003208DF8220008A9DE
:102780001648FDF72DFEADF81850ADF814400020A6
:10279000ADF81A00ADF8160005A90D48FEF7B0FA1D
:1027A0007020ADF804000120ADF806000020ADF85F
:1027B0000C0001A90648FEF722FB08210448FEF799
:1027C00010FF01210248FEF7CAFD09B030BD00002C
:1027D000000400409C81234200081A00000C0140C4
:1027E0004FF0D841088070474FF0D841488070477B
:1027F0004FF0D840408870474FF0D8421080518049
:10280000704710B504462046FFF7EAFF0520FFF7A2
:1028100069FDFFF7EDFF10BDFE48C0794FF0D841CC
:10282000088070474FF0D8414880704730B5014666
:1028300001F01F04C1F34513CA0AE50205EB431575
:102840001544A8B230BD00BF0100A0F10102D0B212
:10285000FAD1704710B503460C46EE488088A0F5C3
:102860001341413905D0EB488088A0F5D0410439A7
:1028700014D1E849087AFFF7B3FF1812FFF7B4FF45
:10288000D8B2FFF7B1FFE349487AFFF7A9FF20125A
:10289000FFF7AAFFE0B2FFF7A7FF12E0DD4880795B
:1028A000012804D1DB480088401EC01A83B2D949F0
:1028B000087A1946FFF7A0FFD649487A2146FFF764
:1028C0009BFF10BD2DE9F04105460E460024002770
:1028D000A046D0480088A84203DDCE484088B042D8
:1028E00002DC0020BDE8F08131462846FFF7B2FF48
:1028F000C8488088A0F51341413905D0C548808873
:10290000A0F5D041043903D12E20FFF769FF02E082
:102910002220FFF765FFBF488088A0F513412039CA
:1029200002D10220FFF78FFF4FF0D840408800B15E
:1029300000240220FFF787FF4FF0D8404488B548B5
:102940008088A0F51341413909D10220FFF77BFFB0
:102950004FF0D840B0F80280E7B23F0208E0AD483F
:102960008088A0F5D041043902D14FF0D840448886
:10297000A8488088A0F51341253917D0A54880883C
:10298000A0F58A41353911D0A2488088A0F58A4146
:1029900031390BD09F488088A0F50941893905D08D
:1029A0009C488088A0F53541053901D1204699E73A
:1029B00098488088A0F51341413907D1E012C00240
:1029C000B91240EA411040EAE8208BE72046FFF7C1
:1029D0002DFF87E700B58F488088A0F51341413966
:1029E00005D08C488088A0F5D041043903D1292036
:1029F000FFF7F6FE04E040F273110720FFF7FCFE3C
:102A000000BD00B583488088A0F51341413905D049
:102A100080488088A0F5D041043903D12820FFF7F1
:102A2000DFFE03E000210720FFF7E6FE00BD70B5E2
:102A30000446002300267748807901281ED1754876
:102A40008088A0F5D041043918D0082C15D2DFE8D1
:102A500004F00406080A0C0E101206240DE00724E8
:102A60000BE0042409E0052407E0012405E000242C
:102A700003E0032401E0022400BF00BF6548808812
:102A8000A0F51341413905D062488088A0F5D041B6
:102A900004397CD1082C1CD2DFE804F00406090CB0
:102AA0000F12151800BF14E043F0800311E043F04B
:102AB00040030EE043F0C0030BE043F0200308E0C6
:102AC00043F0600305E043F0A00302E043F0E003BD
:102AD00000BF00BF362643F008034E488088A0F5AB
:102AE000D041043901D143F0020319463046FFF7C3
:102AF00083FE13F0200F0DD04648008845494988D1
:102B0000884214DA434805884088424908800846CC
:102B100045800CE03F4800883E494988884206DDF0
:102B20003C48058840883B4908800846458039492B
:102B3000087AFFF755FE0020FFF756FE0020FFF74A
:102B400053FE34490988491EC1F30F20FFF74CFE9C
:102B500030490988491EC8B2FFF746FE2D49487A18
:102B6000FFF73EFE0020FFF73FFE0020FFF73CFE90
:102B700028494988491EC1F30F20FFF735FE254932
:102B80004988491EC8B2FFF72FFE32E0FFE7082C44
:102B90001CD2DFE804F004070A0D0F12151843F0E9
:102BA000300313E043F0100310E043F020030DE086
:102BB00000BF0BE043F0380308E043F0280305E0D2
:102BC00043F0180302E043F0080300BF00BF1148C0
:102BD0008088A0F50941893904D1112646F24001C7
:102BE0000B4302E0032643F4805319463046FFF7B7
:102BF00003FE70BD30B504460D4629462046FFF75A
:102C000029FEFFF709FE044800884FF0D8414880AC
:102C100030BD0000400000202E00002030B50346EB
:102C20000C461546FF488088A0F51341413905D070
:102C3000FC488088A0F5D041043914D1F949087ABC
:102C4000FFF7CEFD1812FFF7CFFDD8B2FFF7CCFD8E
:102C5000F449487AFFF7C4FD2012FFF7C5FDE0B242
:102C6000FFF7C2FD12E0EF488079012804D1ED485A
:102C70000088401EC01A83B2EA49087A1946FFF755
:102C8000BBFDE849487A2146FFF7B6FDE548C07923
:102C90004FF0D84108800846458030BD10B5044645
:102CA000B4BB0020DF498871F02008804FF4A07089
:102CB000488008468088A0F51341413905D0D9489D
:102CC0008088A0F5D041043914D12C20D549C87191
:102CD0002A2008722B20487208468088A0F5D0412F
:102CE00004394FD14FF4A070CE4908804FF4F070F2
:102CF000488047E0CB488088A0F50941893908D150
:102D00002220C849C8714E2008724F20487239E00D
:102D100007E02220C349C871202008722120487290
:102D200030E0C0488088A0F5D04104392AD0012085
:102D3000BC4988714FF4A0700880F0204880084694
:102D40008088A0F51341413907D12C20B549C871BD
:102D50002A2008722B20487214E0B2488088A0F51F
:102D60000941893907D12220AE49C8714F20087224
:102D70004E20487206E02220AA49C871212008721C
:102D8000202048720020FFF752FE10BD70B50446A7
:102D90000026A44805884088454300210846FFF7DF
:102DA00059FDFFF739FD00BF03E04FF0D8404480E4
:102DB000761CAE42F9D370BD00B59FB00121080268
:102DC000FDF7B4FD012140F2E110FDF7BCFD4CF22E
:102DD0003370ADF8780003208DF87A0018208DF854
:102DE0007B001EA99048FDF7FBFA4FF6C070ADF8C6
:102DF00078001EA98D48FDF7F3FA012240218B4887
:102E0000FDF79DFB0120ADF878001EA98848FDF76D
:102E1000E7FA4FF48050ADF878001EA98548FDF719
:102E2000DFFA01200890002009900F200A9000206E
:102E30000B900C900D900E90019002900320039047
:102E40000020049005900690079006200F90002027
:102E50001090119010201290002013901590149053
:102E6000169017904FF480501890002019901A90E7
:102E70001B9008A81C9001A81D900FA8FEF793FDB9
:102E800001210620FEF7F0FE3220FFF74EFA012165
:102E90000020FFF7B1FC3220FFF747FA0020FFF7D0
:102EA000B0FC6049888008468088FF280ADB084615
:102EB0008088A0F57F41FF3904D05A488088B0F55A
:102EC000134F45D1D320FFF78BFCFFF791FCFFF7A1
:102ED0008FFCFFF78DFC53498880084680880006E8
:102EE000000C8880FFF784FC4E49898808434D49CF
:102EF000888008468088A0F51341413918D0BF204A
:102F0000FFF76EFCFFF774FCFFF772FCFFF770FC35
:102F1000FFF76EFC43498880084680880006000C55
:102F20008880FFF765FC3F49898808433D498880D0
:102F30003C488088A0F51341413909D03948808840
:102F4000A0F5D041043903D049F241303549888099
:102F50003448818838A001F00FFE32488088A0F5FF
:102F60001341413970D1CF20FFF73AFC0020FFF721
:102F70003BFCC120FFF738FC3020FFF735FCED208B
:102F8000FFF72EFC6420FFF72FFC0320FFF72CFC3B
:102F90001220FFF729FC8120FFF726FCE820FFF72D
:102FA0001FFC8520FFF720FC1020FFF71DFC7A2076
:102FB000FFF71AFCCB20FFF713FC3920FFF714FCB6
:102FC0002C20FFF711FC0020FFF70EFC3420FFF748
:102FD0000BFC0220FFF708FCF720FFF701FC202084
:102FE000FFF702FCEA20FFF7FBFB0020FFF7FCFBEA
:102FF0000020FFF7F9FBC020FFF7F2FB1B20FFF7D3
:10300000F3FBC120FFF7ECFB0120FFF7EDFBC52030
:10301000FFF7E6FB3020FFF7E7FB3020FFF7E4FB8C
:10302000C72012E0400000200014014000180140B9
:10303000001C014000200140204C43442049443AF8
:1030400025780D0A00000000B6E0FFF7C9FBB720A5
:10305000FFF7CAFB3620FFF7C3FB4820FFF7C4FB8E
:103060003A20FFF7BDFB5520FFF7BEFBB120FFF76D
:10307000B7FB0020FFF7B8FB1A20FFF7B5FBB6201F
:10308000FFF7AEFB0A20FFF7AFFBA220FFF7ACFB78
:10309000F220FFF7A5FB0020FFF7A6FB2620FFF795
:1030A0009FFB0120FFF7A0FBE020FFF799FB0F201B
:1030B000FFF79AFB2A20FFF797FB2820FFF794FBE6
:1030C0000820FFF791FB0E20FFF78EFB0820FFF78B
:1030D0008BFB5420FFF788FBA920FFF785FB4320DB
:1030E000FFF782FB0A20FFF77FFB0F20FFF77CFB37
:1030F0000020FFF779FB0020FFF776FB0020FFF7A9
:1031000073FB0020FFF770FBE120FFF769FB002055
:10311000FFF76AFB1520FFF767FB1720FFF764FB3B
:103120000720FFF761FB1120FFF75EFB0620FFF78A
:103130005BFB2B20FFF758FB5620FFF755FB3C208D
:10314000FFF752FB0520FFF74FFB1020FFF74CFB6A
:103150000F20FFF749FB3F20FFF746FB3F20FFF71B
:1031600043FB0F20FFF740FB2B20FFF739FB00202C
:10317000FFF73AFB0020FFF737FB0120FFF734FB96
:103180003F20FFF731FB2A20FFF72AFB0020FFF743
:103190002BFB0020FFF728FB0020FFF725FBEF208B
:1031A000FFF722FB1120FFF71BFB7820FFF7BDF88C
:1031B0002920FFF715FB8AE2FF488088A0F5D0415F
:1031C00004397ED11120FFF70BFB1420FFF7ADF877
:1031D000D020FFF705FB0720FFF706FB4220FFF793
:1031E00003FB1D20FFF700FBD120FFF7F9FA0020B9
:1031F000FFF7FAFA1A20FFF7F7FA0920FFF7F4FAB7
:10320000D220FFF7EDFA0120FFF7EEFA2220FFF7B8
:10321000EBFAC020FFF7E4FA1020FFF7E5FA3B20B5
:10322000FFF7E2FA0020FFF7DFFA0220FFF7DCFAEF
:103230001120FFF7D9FAC520FFF7D2FA0320FFF7D4
:10324000D3FAC820FFF7CCFA0020FFF7CDFA2520EB
:10325000FFF7CAFA2120FFF7C7FA0520FFF7C4FAE3
:103260000020FFF7C1FA0A20FFF7BEFA6520FFF73A
:10327000BBFA2520FFF7B8FA7720FFF7B5FA502000
:10328000FFF7B2FA0F20FFF7AFFA0020FFF7ACFA12
:10329000F820FFF7A5FA0120FFF7A6FAFE20FFF7B6
:1032A0009FFA0020FFF7A0FA0220FFF79DFA2020E6
:1032B000FFF796FA3620FFF793FA0820FFF794FA03
:1032C00000E02AE03A20FFF78BFA5520FFF78CFA4E
:1032D0002B20FFF785FA0020FFF786FA0020FFF782
:1032E00083FA0120FFF780FA3F20FFF77DFA2A20BA
:1032F000FFF776FA0020FFF777FA0020FFF774FA5D
:103300000120FFF771FADF20FFF76EFA7820FFF750
:103310000CF82920FFF764FAD9E1A7488088A0F5C6
:10332000134125397ED147F6F001E520FFF764FA15
:103330004FF480710120FFF75FFA4FF4E061022043
:10334000FFF75AFA41F230010320FFF755FA002146
:103350000420FFF751FA40F202210820FFF74CFA4F
:1033600000210920FFF748FA00210A20FFF744FA5C
:1033700000210C20FFF740FA00210D20FFF73CFA56
:1033800000210F20FFF738FA00211020FFF734FA50
:1033900007211120FFF730FA00211220FFF72CFA45
:1033A00000211320FFF728FA00210720FFF724FA55
:1033B00041F290611020FFF71FFA40F227211120FF
:1033C000FFF71AFA9D211220FFF716FA4FF4C851A1
:1033D0001320FFF711FA25212920FFF70DFA0D21FF
:1033E0002B20FFF709FA07213020FFF705FA40F2FA
:1033F00003313120FFF700FA03213220FFF7FCF9F7
:1034000040F206213520FFF7F7F908213620FFF7B3
:10341000F3F940F206413720FFF7EEF94FF441711E
:10342000382000E057E0FFF7E7F907213920FFF7E0
:10343000E3F940F202613C20FFF7DEF908213D206C
:10344000FFF7DAF900215020FFF7D6F9EF215120DC
:10345000FFF7D2F900215220FFF7CEF940F23F11D9
:103460005320FFF7C9F94FF427416020FFF7C4F953
:1034700001216120FFF7C0F900216A20FFF7BCF9A4
:1034800000218020FFF7B8F900218120FFF7B4F96F
:1034900000218220FFF7B0F900218320FFF7ACF96B
:1034A00000218420FFF7A8F900218520FFF7A4F967
:1034B00010219020FFF7A0F94FF4C0619220FFF790
:1034C0009BF940F233110720FFF796F922210020E3
:1034D000FFF792F9FBE038488088A0F513412839BE
:1034E0006CD141F28F01EC20FFF786F941F23421D3
:1034F000EF20FFF781F94FF480710120FFF77CF98D
:103500004FF4E0610220FFF777F941F23001032028
:10351000FFF772F900210420FFF76EF940F2022153
:103520000820FFF769F900210920FFF765F900215C
:103530000A20FFF761F901210C20FFF75DF9002156
:103540000D20FFF759F900210F20FFF755F9002151
:103550001020FFF751F907211120FFF74DF9002145
:103560001220FFF749F900211320FFF745F9012147
:103570000720FFF741F93220FEF7D7FE41F29041D4
:103580001020FFF739F940F227211120FFF734F915
:103590003220FEF7CAFE8A211220FFF72DF93220D1
:1035A000FEF7C3FE4FF4D0511320FFF725F9062193
:1035B0002920FFF721F902E04000002088E00D21DA
:1035C0002B20FFF719F93220FEF7AFFE0021202053
:1035D000FFF712F900212120FFF70EF93220FEF744
:1035E000A4FE00213020FFF707F940F204613120EA
:1035F000FFF702F940F205313220FFF7FDF8002114
:103600003520FFF7F9F840F609413620FFF7F4F8C6
:103610004FF401713720FFF7EFF840F20131382005
:10362000FFF7EAF840F207713920FFF7E5F80021CB
:103630003C20FFF7E1F840F60A213D20FFF7DCF8D7
:103640003220FEF772FE00215020FFF7D5F8EF215F
:103650005120FFF7D1F800215220FFF7CDF840F2BA
:103660003F115320FFF7C8F84FF427416020FFF7C0
:10367000C3F801216120FFF7BFF800216A20FFF79E
:10368000BBF800218020FFF7B7F800218120FFF769
:10369000B3F800218220FFF7AFF800218320FFF765
:1036A000ABF800218420FFF7A7F800218520FFF761
:1036B000A3F810219020FFF79FF84FF4C0619220EB
:1036C000FFF79AF840F233110720FFF795F848E228
:1036D000FF488088A0F5134120397ED10846FFF7C6
:1036E0008BF84FF480710120FFF786F84FF4E0610A
:1036F0000220FFF781F841F230010320FFF77CF848
:1037000000210420FFF778F840F202210820FFF79B
:1037100073F800210920FFF76FF800210A20FFF756
:103720006BF801210C20FFF767F800210D20FFF74F
:1037300063F800210F20FFF75FF83220FEF7F5FD58
:1037400040F201110720FFF757F83220FEF7EDFD98
:103750004FF486511020FFF74FF807211120FFF793
:103760004BF84FF488711220FFF746F84FF43061A0
:103770001320FFF741F800212920FFF73DF844F21C
:1037800010012B20FFF738F800215020FFF734F804
:10379000EF215120FFF730F800215220FFF72CF8DD
:1037A00040F23F115320FFF727F84FF41C516020DF
:1037B000FFF722F801216120FFF71EF800216A209F
:1037C000FFF71AF800218020FFF716F8002181206A
:1037D000FFF712F80021822000E02CE0FFF70CF840
:1037E00000218320FFF708F800218420FFF704F868
:1037F00000218520FFF700F810219020FEF7FCFF44
:1038000000219220FEF7F8FF01219320FEF7F4FF3C
:103810004FF488719520FEF7EFFF00219720FEF707
:10382000EBFF00219820FEF7E7FF40F2731107201D
:10383000FEF7E2FF95E1A6488088A0F513413139F3
:103840007DD141F21401E720FEF7D6FF4FF48071DD
:103850000120FEF7D1FF4FF400710220FEF7CCFFEC
:1038600041F238010320FEF7C7FF40F20221082091
:10387000FEF7C2FF00210920FEF7BEFF00210A204B
:10388000FEF7BAFF00210C20FEF7B6FF00210D2045
:10389000FEF7B2FF00210F20FEF7AEFF002110203F
:1038A000FEF7AAFF07211120FEF7A6FF0021122034
:1038B000FEF7A2FF00211320FEF79EFFC820FEF7AF
:1038C00034FD41F290611020FEF796FF40F227216F
:1038D0001120FEF791FF3220FEF727FD0C21122068
:1038E000FEF78AFF3220FEF720FD4FF4006113201F
:1038F000FEF782FF11212920FEF77EFF0B212B20EE
:10390000FEF77AFF3220FEF710FD00212020FEF79F
:1039100073FF40F23F112120FEF76EFF002130209F
:10392000FEF76AFF4FF483713120FEF765FF002137
:103930003220FEF761FF4FF40171352000E064E0B2
:10394000FEF75AFF41F20A613620FEF755FF40F2BA
:1039500007713720FEF750FF4FF483713820FEF7D0
:103960004BFF40F207713920FEF746FF40F202415B
:103970003C20FEF741FF40F60F413D20FEF73CFFA3
:1039800000215020FEF738FFEF215120FEF734FFD1
:1039900000215220FEF730FF40F23F115320FEF786
:1039A0002BFF4FF41C516020FEF726FF0121612000
:1039B000FEF722FF00216A20FEF71EFF0021802073
:1039C000FEF71AFF00218120FEF716FF002182205A
:1039D000FEF712FF00218320FEF70EFF0021842056
:1039E000FEF70AFF00218520FEF706FF1021902038
:1039F000FEF702FF4FF4C0619220FEF7FDFE40F299
:103A000033110720FEF7F8FEABE031488088A0F5BF
:103A1000A84108397DD14FF480710120FEF7ECFEFA
:103A20004FF4E0610220FEF7E7FE41F2300103208F
:103A3000FEF7E2FE00210420FEF7DEFE40F2072141
:103A40000820FEF7D9FE00210920FEF7D5FE00214F
:103A50000A20FEF7D1FE00210C20FEF7CDFE00214A
:103A60000D20FEF7C9FE00210F20FEF7C5FE142031
:103A7000FEF75BFC41F2B0611020FEF7BDFE0121B4
:103A80001120FEF7B9FE01211720FEF7B5FE4FF415
:103A90009C711220FEF7B0FE4FF400611320FEF778
:103AA000ABFE09212920FEF7A7FE09212A20FEF7F7
:103AB000A3FE0021A420FEF79FFE00215020FEF768
:103AC0009BFEEF215120FEF797FE0021522001E0DE
:103AD00040000020FEF790FE40F23F115320FEF719
:103AE0008BFE4FF41C516020FEF786FE0121612001
:103AF000FEF782FE00216A20FEF77EFE0021802074
:103B0000FEF77AFE00218120FEF776FE002182205A
:103B100000E027E0FEF770FE00218320FEF76CFE38
:103B200000218420FEF768FE00218520FEF764FE58
:103B300013219020FEF760FE00219220FEF75CFE2C
:103B400003219320FEF758FE4FF488719520FEF76D
:103B500053FE40F273110720FEF74EFE3220FEF7AF
:103B6000E4FB24E2FF488088A0F5A85105397ED106
:103B70000720FEF741FE3220FEF7D7FB4FF48E718F
:103B80001220FEF739FE0121A420FEF735FE0F2199
:103B90000820FEF731FE08210A20FEF72DFE08213D
:103BA0000D20FEF729FE40F207713020FEF724FEBB
:103BB00007213120FEF720FE40F203613220FEF79C
:103BC0001BFE4FF4E0613320FEF716FE40F20221A7
:103BD0003420FEF711FE02213520FEF70DFE41F6DE
:103BE0000F713620FEF708FE40F207713720FEF70E
:103BF00003FE00213820FEF7FFFD00213920FEF7EB
:103C0000FBFD40F207713A20FEF7F6FD00213B2054
:103C1000FEF7F2FD07213C20FEF7EEFD00213D20DE
:103C2000FEF7EAFD3220FEF780FB01210720FEF7B8
:103C3000E3FD01211720FEF7DFFD3220FEF775FBC3
:103C40004FF4BD511020FEF7D7FD40F2172111208F
:103C5000FEF7D2FD4FF48F711220FEF7CDFD4FF429
:103C600070611320FEF7C8FD00212A2000E093E0D8
:103C7000FEF7C2FD0A212920FEF7BEFD4FF49F7119
:103C80001220FEF7B9FD00215020FEF7B5FDEF210F
:103C90005120FEF7B1FD00215220FEF7ADFD40F2AC
:103CA0003F115320FEF7A8FD4FF41C516020FEF792
:103CB000A3FD01216120FEF79FFD00216A20FEF790
:103CC0009BFD00218020FEF797FD00218120FEF75B
:103CD00093FD00218220FEF78FFD00218320FEF757
:103CE0008BFD00218420FEF787FD00218520FEF753
:103CF00083FD13219020FEF77FFD4FF44071922049
:103D0000FEF77AFD05219320FEF776FD0021952030
:103D1000FEF772FD00219720FEF76EFD002198202E
:103D2000FEF76AFD4FF480710120FEF765FD4FF448
:103D3000E0610220FEF760FD41F238010320FEF74A
:103D40005BFD00210420FEF757FD00210C20FEF74B
:103D500053FD00210F20FEF74FFD00212020FEF72C
:103D60004BFD00212120FEF747FD21210720FEF712
:103D700043FD1420FEF7D9FA61210720FEF73CFD30
:103D80001420FEF7D2FA40F273110720FEF734FD3B
:103D90001420FEF7CAFA0AE172488088A0F535417E
:103DA00005397DD10846FEF727FD00210846FEF7BC
:103DB00023FD00210846FEF71FFD00210846FEF7FF
:103DC0001BFD0121A420FEF717FD1420FEF7ADFA1C
:103DD0004FF41C516020FEF70FFD40F20221082035
:103DE000FEF70AFD4FF405713020FEF705FD43F2A2
:103DF00015713120FEF700FD40F204613220FEF71C
:103E0000FBFC40F616613320FEF7F6FC42F211216E
:103E10003420FEF7F1FC4FF4A8513520FEF7ECFCFE
:103E200048F207513620FEF7E7FC41F20741372000
:103E3000FEF7E2FC41F203413820FEF7DDFC2021D1
:103E40003920FEF7D9FC1A219020FEF7D5FC00217D
:103E50001020FEF7D1FC07211120FEF7CDFC002138
:103E60001220FEF7C9FC00211320FEF7C5FC142028
:103E7000FEF75BFA4FF4E6611020FEF7BDFC40F25E
:103E800037111120FEF7B8FC1420FEF74EFA4FF45C
:103E9000DC711220FEF7B0FC1420FEF746FA00E0B9
:103EA00086E04FF470611320FEF7A6FC80212A20E3
:103EB000FEF7A2FC48212920FEF79EFC1420FEF705
:103EC00034FA4FF480710120FEF796FC4FF4E06164
:103ED0000220FEF791FC41F238010320FEF78CFC32
:103EE00040F202210820FEF787FC00210A20FEF79D
:103EF00083FC00210C20FEF77FFC00210D20FEF743
:103F00007BFC30210E20FEF777FC00215020FEF7CD
:103F100073FCEF215120FEF76FFC00215220FEF7C9
:103F20006BFC40F23F115320FEF766FC4FF41C512E
:103F30006020FEF761FC01216120FEF75DFC00219D
:103F40006A20FEF759FC11219020FEF755FC4FF432
:103F5000C0619220FEF750FC40F202419320FEF730
:103F60004BFC01E04000002002219420FEF744FCBD
:103F70001420FEF7DAF901210720FEF73DFC14209A
:103F8000FEF7D3F961210720FEF736FC40F27311EA
:103F90000720FEF731FC00212020FEF72DFC002138
:103FA0002120FEF729FC22210020FEF725FC14E346
:103FB000FF488088A0F5454105397DD10846FEF7C8
:103FC0001BFC00210846FEF717FC1420FEF7ADF994
:103FD00000210846FEF710FC00210846FEF70CFC05
:103FE00000210846FEF708FC00210846FEF704FC05
:103FF0000121A420FEF700FC1420FEF796F94FF4EF
:104000001C516020FEF7F8FB40F606010820FEF781
:10401000F3FB40F203713020FEF7EEFB012131206B
:10402000FEF7EAFB04213220FEF7E6FB4FF4817134
:104030003320FEF7E1FB4FF440713420FEF7DCFB48
:1040400040F203113520FEF7D7FB1F213620FEF783
:10405000D3FB40F203713720FEF7CEFB012138205D
:10406000FEF7CAFB04213920FEF7C6FB152190207C
:10407000FEF7C2FB4FF482611020FEF7BDFB40F259
:1040800047211120FEF7B8FB4FF4DE711220FEF736
:10409000B3FB4FF460611320FEF7AEFB7820FEF710
:1040A00044F94FF480710120FEF7A6FB4FF4007134
:1040B0000220FEF7A1FB00E050E041F230010320B6
:1040C000FEF79AFB08210A20FEF796FB00210C2040
:1040D000FEF792FB20210E20FEF78EFB00210F2021
:1040E000FEF78AFB00212020FEF786FB002121201D
:1040F000FEF782FB3D212A20FEF77EFB1420FEF70F
:1041000014F92D212920FEF777FB00215020FEF71E
:1041100073FB4DF2EF015120FEF76EFB00215220A0
:10412000FEF76AFB40F23F115320FEF765FB0021CA
:104130006120FEF761FB00216A20FEF75DFB4FF472
:1041400040719220FEF758FB05219320FEF754FBA7
:104150004FF480710720FEF74FFB3EE294488088C1
:10416000A0F5094189397DD101210020FEF744FBEA
:104170004AF6A4010320FEF73FFB00210C20FEF7C6
:104180003BFB40F60C010D20FEF736FB4FF42C51A3
:104190000E20FEF731FBB0211E20FEF72DFB42F66C
:1041A0003F310120FEF728FB4FF4C0610220FEF7EB
:1041B00023FB00211020FEF71FFB46F2780111209F
:1041C000FEF71AFB00210520FEF716FB0021062052
:1041D000FEF712FB4EF61C711620FEF70DFB0321B5
:1041E0001720FEF709FB40F233210720FEF704FBFE
:1041F00000210B20FEF700FB00210F20FEF7FCFA48
:1042000000214120FEF7F8FA00214220FEF7F4FADF
:1042100000214820FEF7F0FA40F23F114920FEF756
:10422000EBFA00214A20FEF7E7FA00214B20FEF7C7
:10423000E3FA4FF46F414420FEF7DEFA00214520F7
:10424000FEF7DAFA40F23F114620FEF7D5FA40F2C7
:1042500007713020FEF7D0FA4FF401713120FEF7DC
:10426000CBFA00E03DE04FF401713220FEF7C4FAD2
:1042700040F202513320FEF7BFFA40F207513420DA
:10428000FEF7BAFA4FF401713520FEF7B5FA4FF494
:1042900001713620FEF7B0FA40F202513720FEF7E6
:1042A000ABFA40F202313A20FEF7A6FA40F20231B0
:1042B0003B20FEF7A1FA00212320FEF79DFA002102
:1042C0002420FEF799FA4FF400412520FEF794FAD6
:1042D00000214F20FEF790FA00214E20FEF78CFAC5
:1042E0007BE133488088A0F58A4131397ED10121B4
:1042F0000020FEF781FA0A20FEF717F841F2286144
:104300001020FEF779FA0E211220FEF775FA40F61A
:1043100039211320FEF770FA0A20FEF706F8402133
:104320001120FEF769FA50211520FEF765FA0A20E0
:10433000FDF7FBFF1E211220FEF75EFA0A20FDF7B3
:10434000F4FF4FF4B1511020FEF756FA42F639212E
:104350001320FEF751FA0A20FDF7E7FF4FF48071B2
:104360000120FEF749FA4FF440710220FEF744FAAB
:1043700041F238010320FEF73FFA40F20221082003
:10438000FEF73AFA08210A20FEF736FA002130201B
:10439000FEF732FA40F202413120FEF72DFA4FF4D7
:1043A00083713220FEF728FA40F20351332001E0F6
:1043B00040000020FEF720FA4FF482713420FEF70F
:1043C0001BFA40F201313520FEF716FA40F2077170
:1043D0003620FEF711FA40F205313720FEF70CFACD
:1043E0004FF402713820FEF707FA00E03EE040F695
:1043F0000B713920FEF700FA02214120FEF7FCF98B
:104400004FF41C516020FEF7F7F901216120FEF7FF
:10441000F3F94FF404719020FEF7EEF94FF4857133
:104420009220FEF7E9F904219320FEF7E5F94FF415
:104430008071A020FEF7E0F901210720FEF7DCF9EA
:1044400021210720FEF7D8F923210720FEF7D4F910
:1044500033210720FEF7D0F940F233110720FEF791
:10446000CBF90021A020FEF7C7F9B6E0FC48808810
:10447000A0F58A4135397ED130211520FEF7BCF9EF
:1044800010219A20FEF7B8F920211120FEF7B4F987
:1044900043F228411020FEF7AFF902211220FEF767
:1044A000ABF941F238011320FEF7A6F92820FDF7F9
:1044B0003CFF12210846FEF79FF92820FDF735FF43
:1044C00043F220411020FEF797F943F23801132000
:1044D000FEF792F94620FDF728FF00213020FEF775
:1044E0008BF940F202413120FEF786F940F20731A4
:1044F0003220FEF781F94FF441713320FEF77CF949
:1045000004213420FEF778F940F201413520FEF70E
:1045100073F940F207713620FEF76EF940F205316B
:104520003720FEF769F94FF4C2613820FEF764F9CD
:104530004FF4C2613920FEF75FF94FF4807101201A
:10454000FEF75AF94FF440710220FEF755F941F297
:1045500030010320FEF750F940F608010820FEF76D
:104560004BF908210A20FEF747F94FF41C5160204F
:10457000FEF742F900E030E001216120FEF73CF94E
:104580004FF49F719020FEF737F94FF4807192201D
:10459000FEF732F94FF480719320FEF72DF94FF4B6
:1045A0004051A020FEF728F91021A320FEF724F99E
:1045B00001210720FEF720F921210720FEF71CF931
:1045C00023210720FEF718F933210720FEF714F9FD
:1045D00040F233110720FEF70FF90020FEF75EFBD3
:1045E0000120A04908604FF6FF70FEF7CFFB1FB017
:1045F00000BD2DE9F04F05460E4617469846DDF8FA
:1046000024A04FF0000B781B401C1FFA80FB34469F
:1046100013E021462846FEF71DF9FEF7FDF84FF09E
:10462000000906E05046FEF7DFF809F101001FFA25
:1046300080F9D945F6DB601C84B24445E9DDBDE86C
:10464000F08F2DE9F84F07460D4690469946DDF864
:1046500028B0A8EB0700401C80B20090A9EB050031
:10466000401C1FFA80FA002416E0281981B238464F
:10467000FEF7F0F8FEF7D0F8002608E004FB0A6029
:104680003BF810004FF0D8414880701C86B200986B
:104690008642F3DB601C84B25445E6DBBDE8F88F4C
:1046A0002DE9FF4F84B081468A4600200390029096
:1046B0000698A0EB09050798A0EB0A06CDF8049030
:1046C000CDF800A0002D01DD012705E00DB9002780
:1046D00002E04FF0FF376D42002E02DD4FF001087F
:1046E00006E016B94FF0000802E04FF0FF387642BE
:1046F000B54201DD2C4600E034464FF0000B21E0CE
:10470000009881B2019880B2FEF774FA03982844A9
:1047100003900298304402900398A04205DD03986C
:10472000001B03900198384401900298A04205DDD7
:104730000298001B02900098404400900BF1010089
:104740001FFA80FB601C8345DADD08B0BDE8F08FFE
:10475000F0B504460D4616461F462B4632462946FE
:104760002046FFF79DFF3B46224629462046FFF79D
:1047700097FF3B46324639462046FFF791FF3B46BE
:10478000324629463046FFF78BFFF0BD2DE9F04356
:1047900006460F469046002445460320A0EB4809F4
:1047A0003CE07A1B91B2321990B2FEF723FA3A1B21
:1047B00091B2721990B2FEF71DFA3A1991B27219BC
:1047C00090B2FEF717FA7A1991B2321990B2FEF749
:1047D00011FA7A1991B2321B90B2FEF70BFA3A191C
:1047E00091B2721B90B2FEF705FA7A1B91B2321B9E
:1047F00090B2FEF7FFF93A1B91B2721B90B2FEF72E
:10480000F9F9641CB9F1000F03DAA000801D81449E
:1048100004E0601B80000A3081446D1EAC42C0DDA4
:10482000BDE8F0832DE9FF4F81B005460F46904665
:104830001E4600970C48B0F80090A8F1200000F048
:10484000FF080E98D8BB002454E00C2E10D108EBC2
:104850004800064901EB800010F804A00DE00000BC
:1048600040000020840121422E00002094590008BD
:10487000BC4800EB081010F804A04FF0000B33E028
:104880001AF0800F03D0B848A0F8009003E0B748B2
:104890000088B549088039462846FEF7ABF94FEA4B
:1048A0004A604FEA106A781C87B2B1480088A84273
:1048B00006DCAD48A0F8009005B0BDE8F08F1CE024
:1048C0000098381AB0420BD1009F681C85B2A848E6
:1048D0000088A84203DCA448A0F80090ECE706E0BA
:1048E0000BF1010000F0FF0BBBF1080FC8DB00BFAC
:1048F000601CC4B2B442A8DB44E0002440E00C2EAB
:1049000007D108EB48009B4901EB800010F804A098
:1049100004E0944800EB081010F804A04FF0000BDE
:1049200028E01AF0800F03D039462846FEF762F9D6
:104930004FEA4A604FEA106A781C87B28C48408878
:10494000A84203DC8848A0F80090B5E70098381A20
:10495000B0420BD1009F681C85B285480088A842F0
:1049600003DC8148A0F80090A6E706E00BF1010007
:1049700000F0FF0BBBF1080FD3DB00BF601CC4B21B
:10498000B442BCDB7848A0F8009000BF94E710B5B3
:104990000246012000E050430B00A1F10104E1B206
:1049A000F9D110BD2DE9FF4F81B0074691461E4653
:1049B0000E9D4FF0000A00243BE0301B401EC1B2A8
:1049C0000A20FFF7E4FFB9FBF0F00A21B0FBF1F297
:1049D00001FB120000F0FF08BAF1000F16D1701EA3
:1049E000A04213DDB8F1000F0ED10023AB4605EB5A
:1049F000D571491001FB047188B200932B46202227
:104A00000299FFF70FFF12E04FF0010A0023AB46B7
:104A100005EBD571491001FB047188B200932B4658
:104A200008F13001CAB20299FFF7FCFE00BF601C1A
:104A3000C4B2B442C1DB05B0BDE8F08F2DE9FF4F31
:104A400082B0064692461F46DDE90F4800200190DD
:104A500000254FE0781B401EC1B20A20FFF797FFE8
:104A6000BAFBF0F00A21B0FBF1F201FB120000F0FA
:104A7000FF09019850BB781EA84227DDB9F1000F4D
:104A800022D118F0800F0FD008F00103A34604EBE9
:104A9000D471491001FB056188B20093234630228E
:104AA0000399FFF7BFFE0EE008F00103A34604EBF5
:104AB000D471491001FB056188B20093234620227E
:104AC0000399FFF7AFFE13E00120019008F0010306
:104AD000A34604EBD471491001FB056188B2009331
:104AE000234609F13001CAB20399FFF79BFE00BFCC
:104AF000681CC5B2BD42ADDB06B0BDE8F08F2DE944
:104B0000F84704460D4690469946DDE9096704F0EA
:104B1000FF0A08EB04001FFA80F809EB05001FFAF2
:104B200080F916E0444502DB5446A81985B24D458C
:104B300000DB14E0002300933A78334629462046F0
:104B4000FFF770FE304606EBD67104EB61018CB2C4
:104B50007F1C38787E2802DC38782028E2DA00BF13
:104B6000BDE8F887085E00082E0000203000002015
:104B700040000020945900080FB4044910B503AA5E
:104B8000029800F08DF910BC5DF814FB9C00002029
:104B90000FB41CB5074B06AA7B44694600900598E4
:104BA00000F065F90020694600F074F91CBC5DF85E
:104BB00014FB0000F902000070B504468569006826
:104BC0003026C10600D42026C00708D070BDD4E925
:104BD000012130469047206A00F1010020626D1EDD
:104BE000F5D570BD70B5044685690068C00708D169
:104BF00070BDD4E9012120209047206A00F1010016
:104C000020626D1EF5D570BD70B504460D46214677
:104C10001068AFF300802168090502D5104A7A4474
:104C200002E00F4A7A440E32002104F1240307E027
:104C300000F00F064FEA1010965D5E5401F101017D
:104C40000028F5D120680023000704D5702D02D07C
:104C500009B1113202232046BDE8704000F0A7B828
:104C6000D61700002DE9F05F4FF0000B044689468F
:104C70004FF0010AC0F820B02046E168884798B399
:104C8000252806D0D4E901219047206A401C2062E3
:104C9000F2E7444F00267F442046E16888472028F9
:104CA000054608DB312D06D207EB050010F8200C75
:104CB00008B10643F0E7B00701D526F00406C4F8B2
:104CC0001CB00027C4F818B02A2D0ED05246A5F10A
:104CD00030010A292ED2BAF1000F2BD0924604EBF4
:104CE0008708C8F818101AE059E059F8041B204644
:104CF00004EB87029161E1688847012F05461BD1CB
:104D0000E069002823DA26F0200620E0D8F8180011
:104D100000EB800005EB40003038C8F81800204652
:104D2000E1688847A0F1300105460A2902D2BAF1AC
:104D3000000FEBD1012F0AD02E2D08D12046E168BB
:104D400088477F1C0546022F46F02006BCDBA06981
:104D5000002803DA404246F00106A061F00701D0C6
:104D600026F01006DDB1A5F14100192802D8203542
:104D700046F400664A462946204626604E46FBF722
:104D800011FA50B1012805D0F61D26F0070000F1F8
:104D9000080971E706F104096EE7284672E7206A00
:104DA000BDE8F09F861700007047704770472DE9F7
:104DB000F0470D4604469246994600F124080168E2
:104DC000880604D5E06921F01001216000E001208F
:104DD0000027A84201DDA0EB0507A16907EB05024A
:104DE00002EB0300A1EB0000A0612068C00602D422
:104DF0002046FFF7E1FE002608E0D4E901211AF879
:104E000006009047206A401C761C20624E45F4DB69
:104E10002068C0060AD52046FFF7CEFE06E0D4E99A
:104E2000012130209047206A401C2062381EA7F1E3
:104E30000107F4DC07E0D4E9012118F805009047E8
:104E4000206A401C2062281EA5F10105F3DC2046E3
:104E5000FFF7C8FE21680220090600D40120BDE842
:104E6000F087000001694A1C02610878704700B5AC
:104E70008FB0CDE901310021059105497944CDE993
:104E8000031011466846FFF7EDFE0FB000BD0000AD
:104E9000E5FFFFFF0A6802F8010B0A607047000097
:104EA000074B70B50C467B44FFF7E1FF05462046F3
:104EB00000F008F810B14FF0FF3070BD284670BD0B
:104EC000C30A0000C06800F08000704710B5424877
:104ED000502100F0C8FA4148502100F0C4FA40487F
:104EE000502100F0C0FA3F483B493C4B3F4A01602B
:104EF0003D4803603A4810605A1CCA64411CD9649A
:104F00000121C1643B48344A39A1784400F004FAD5
:104F100020B9384878440A3800F09EFA37482F4ABA
:104F200035A1784400F0F8F920B9344878440A38BB
:104F300000F092FA32482A4A2FA1784400F0ECF9A6
:104F400020B92F4878440A3800F086FA40232248D6
:104F5000DC000021224600F0BBF920B1254878444E
:104F6000543800F079FA1D4822464023002100F011
:104F7000AFF920B121487844543800F06DFA184850
:104F800022461023002100F0A3F9002806D01C4877
:104F90007844BDE81040563800F05EBA10BD1048A5
:104FA00070B5C06C20F001040B4800F029FA0B48E2
:104FB00000F026FA0A4800F023FA09E0E06C20F03D
:104FC0000105204600F01CFA204600F073F82C463C
:104FD000002CF3D170BD00004C0000209C0000208C
:104FE000EC00002034000020380000203C000020AD
:104FF0007200000023150000770000000F1500006C
:10500000FB1400000EB5CDE9000100F0EDFB0290AD
:1050100069460120ABBE0EBD08B56946009002206E
:10502000ABBE08BD1FB58DE8070069460520ABBEC5
:1050300004B010BD1FB58DE80F0069460620ABBE59
:10504000F6E708B5694600900920ABBE08BD1CB55F
:10505000CDE9000169460A20ABBE1CBD704708B50A
:10506000694600900C20ABBE08BD754600F022FAE0
:10507000AE4605006946534620F00700854618B045
:1050800020B5FBF7BFF8BDE820404FF000064FF019
:1050900000074FF000084FF0000B21F00701AC466D
:1050A000ACE8C009ACE8C009ACE8C009ACE8C0098C
:1050B0008D46704770B50446051F00F001FA006880
:1050C000002C14BF446870BD002C18BFA54284BFDB
:1050D00020466468F8D801680A18AA4218BF4560DB
:1050E00003D12A6805461144016028684119A1428C
:1050F0001CBF6C6070BD61686960216808442860ED
:1051000070BD2DE9F04705460C46C86820F4201014
:1051100040F48000C860800602D5084600F023FBFA
:10512000E06841F282014FF0FF390140022903D0CB
:10513000204600F0C1FAB0E000F42041B1F5004F84
:105140000FD1C00306D56168E06A884200D80846DE
:10515000606006E02069E06260606069FFF77FFFE1
:10516000A061A0680022EEB200280DDAE1688B058C
:105170000AD4C043A06041F490302260E0606068CF
:10518000411C61600670A1E0E06890462260012742
:1051900040F40050E060206938BB6069FFF751FFC0
:1051A000A0B1E06810F4407F08D0E06900F0D5F9C4
:1051B00020616060E06840F4006015E004F12401C3
:1051C0002161E76140F4806061600DE0E06900F01A
:1051D000C4F920616060E06840F4006010F4407F32
:1051E000E06002D140F48070E060E06825696FF013
:1051F000010AC10521D56168E06A884200D80846E5
:10520000411B04D02246284600F060FAF0BBE0685B
:10521000010203D5E562C4E9015855E005F1010139
:10522000E1626160E16940F48030A1F10101C4E90B
:10523000021030462E70BDE8F087010202D500F45E
:1052400080370AE06068411C61600670E0680A2EE1
:1052500040F48030E06000D00027E26A606882425B
:1052600001D9114600E00146E368A1EB05015B05A9
:1052700003D4E3698B4200DDE7B1824200D80246E5
:10528000E562171AC4E90158002900E005E006DDCF
:105290002246284600F01AFA08B14846CBE74FB13B
:1052A000A069E5626560A0EB0700A061E06840F0DE
:1052B0001000E060E068000208D56168A069E5625E
:1052C000491B08446560A0615046B4E73046B2E728
:1052D00070B5C468A50713D0650211D4B2F5807FFC
:1052E00009D0B2F5007F06D0B2F5806F08D1012356
:1052F00000F1240106E05D1E6FF07F46B54201D348
:10530000012070BD0161C361416024F470611143EB
:10531000C160002070BD00002DE9F04107460C4639
:105320001646104600F06CF82078611C61280AD0FF
:10533000722802D077283CD102E00125002405E044
:105340000225042402E0082448F2020511F8010BAA
:105350002B2806D0622809D011F8010C74280AD035
:105360000BE045F0030544F00204EFE745F00405C7
:1053700044F00104EAE744F0100438462146FFF700
:1053800041FE411C15D00021316171604FF4007164
:10539000F560F1617061200704D5304602220021DA
:1053A00000F00EF9F06C40F00100F0643046BDE80A
:1053B000F0810020FBE72DE9F04105460E460F4C39
:1053C000E06CC10704D0410804D020F00104F7E7E5
:1053D00022460DE0502000F0C0F80746E06C47F090
:1053E000010108435021E064384600F03CF83A4699
:1053F00031462846BDE8F0418EE700004C00002011
:105400002DE9F04704464FF000094FF0FF37C5681B
:10541000D0E90486A80707D0204600F081F930467D
:10542000FFF7FAFD002802DA3846BDE8F0872805C4
:1054300002D54046FFF73EFE4821204600F013F813
:10544000E06C20F00100E0644846EEE70446AFF36C
:1054500000802046FAF7C2FE10B500F0ABF9BDE8B7
:10546000104000F0A1B94FF0000200B51346944679
:105470009646203922BFA0E80C50A0E80C50B1F1AC
:105480002001BFF4F7AF090728BFA0E80C5048BFC0
:105490000CC05DF804EB890028BF40F8042B08BF5E
:1054A000704748BF20F8022B11F0804F18BF00F85A
:1054B000012B7047004870473C01002070470000F6
:1054C00001487047704700BF440100207047704793
:1054D0007047704738B504460A4600206946AFF366
:1054E0000080002808BF38BD02460099204600F021
:1054F000AEF9012038BD012000F0FEB9F8B5AFF3D8
:105500000080054600200C46102000BF06462844B7
:10551000A0420DD9324669460020AFF30080070053
:1055200008BF00F0E9F90098A04218BF0546C41969
:10553000FFF7C6FF05600746F01D20F0070046197B
:10554000284600F07DF9B44208BFF8BDA21B3146E1
:105550003868BDE8F84000F07AB970B50646FFF744
:10556000AFFF0568301D082838BF0820C01D20F097
:105570000704B4429CBF002070BD2B466A68BAB1D4
:105580001068A04210D304F1080188423CBF506863
:10559000586007D35168101941601168091B0160F8
:1055A00058601460101D70BD13465268002AE7D180
:1055B00021462846FFF78EFF0028DED170BD00008F
:1055C0002DE9F04104460D4616464769C06880073C
:1055D0002ED03846FFF735FD50BB3EB3012E02D02A
:1055E000022E25D104E0204600F04AF905441DE0D2
:1055F0003846FFF734FDE168002841F01001E16012
:1056000005DA204600F058F80120BDE8F081C90312
:105610000BD5E26A61688A4200D91146A269114439
:105620002269891A814200DD08460544002D01DA0D
:105630000220EAE7E16A6068E268814206D29103EB
:10564000E06203D522F4003141F010024FF0000C6B
:10565000A669AE4211DCE16A814201D90B4600E045
:1056600003469F192369FF1AAF4206DD814201D923
:105670000F4600E007469F4207D1C4F808C0C4F8AF
:1056800000C042F02000A5620DE0AD1BE669AE1B34
:105690008142A66000D90846C01A281A206058190D
:1056A000606022F0200003490840E060002084F898
:1056B00044C0AAE7BFCFD7FFC16821F4001141F071
:1056C0008001C16000218160016070472DE9F047D1
:1056D00081460E4614464FF0FF383248D568576968
:1056E000054209D03846A169FFF7B1FC002811DB5B
:1056F0002C48C0430540E5602B46324649463846B3
:10570000FFF790FCA16920F00042B21A1144002872
:10571000A16103D02046FFF7CFFF4046BDE8F087E8
:1057200070B504460569C06A6168884200D80846B9
:10573000E16821F42011E160C90312D5A84208D024
:105740002246411B2846FFF7C1FF10B14FF0FF3042
:1057500070BD0020E562C4E90150E06820F48030AB
:10576000E060002070BD10B50446C06820F0200045
:10577000E060A16AA06988420DD02046FFF7D0FF03
:10578000E06820F4405040F01000E060A06AA061A2
:105790002069E062606044F24001E0688843E060B4
:1057A00010BD000010000200002801D000F03CB83D
:1057B0007047000010B5014602A000F084F80120F7
:1057C00010BD000053494752545245443A20526597
:1057D0006469726563743A2063616E2774206F7028
:1057E000656E3A200000000010B5431C02E010F87E
:1057F000011B71B18107FAD14FF0013202C88C1A36
:105800008C4314EAC211F9D0C01A0A0603D0C01E94
:1058100010BDC01A10BD0A0401D0801E10BD0902BF
:10582000FCD0401E10BD000001491820ABBEFEE7B1
:105830002600020001487047704700BF4001002069
:1058400000210160C0E901107047102070474368D3
:105850008C46002B18BF994284BF18465B68F8D865
:1058600003681844884207D00CF1030020F00700B9
:10587000001D411A521A0146081D0A60FFF71ABCA2
:1058800010B50146C268900703D0900607D5886A14
:105890000BE000F03FF801210160881E10BD8B690C
:1058A000486818440B69A0EB030091F8443023B119
:1058B00091F84510A0EB010010BD1103FCD50028A4
:1058C000FADD401E10BD70B505460C460A2000E00A
:1058D0006D1C00F018F835B128780028F8D102E0E6
:1058E000641C00F010F814B120780028F8D1BDE84D
:1058F00070400A2000F007B810B500F011F8BDE8BC
:105900001040FFF751BF08B569468DF8000003202D
:10591000ABBE08BD01487047704700BF3C01002086
:10592000002110B5012800D102A108A0FFF7CBFF8C
:10593000012010BD3A2048656170206D656D6F7261
:105940007920636F727275707465640053494752B1
:10595000544D454D3A204F7574206F66206865613F
:1059600070206D656D6F7279000000008A68002AF2
:1059700001DCFFF7C6BB521E8A604A68C0B2531CE6
:105980004B601070704710B5FFF754FF4FF00001E7
:10599000016010BD000000000000000000000000D9
:1059A000000000003F400000000000000000300048
:1059B000400030004000000009000BC03D000BC05B
:1059C0003D00090018C024407FE0224031800000E3
:1059D000180024C01B000D803240018003801C4051
:1059E00027401C80074000401000600000000000BD
:1059F000000000000000000000001F802040402048
:105A00000000402020401F80000000000900060028
:105A10001F80060009000000040004003F8004000D
:105A20000400000000100060000000000000000002
:105A30000400040004000400040000000000004012
:105A40000000000000000000002001C00600380037
:105A5000400000001F802040204020401F800000A8
:105A6000000010403FC000400000000018C021406E
:105A70002240244018400000108020402440244050
:105A80001B80000002000D0011003FC0014000001B
:105A90003C80244024402440238000001F80244078
:105AA00024403440038000003000200027C038002C
:105AB000200000001B802440244024401B80000064
:105AC0001C0022C0224022401F8000000000000075
:105AD000084000000000000000000000046000001A
