:03000000020E7F6E
:0C0E7F00787FE4F6D8FD75817B020EC67A
:08107D003130302000487A00F8
:100F0B00C296D29775B0FFC288D2A8D2AF1210206A
:100F1B0090FA0074FFF0FB7A10797D7D01E4FF12EB
:100F2B000FEE7BFF7A1079827D017F0E120FEE9010
:100F3B00F880E020E7F990F80074CFF090F880E0AB
:100F4B0020E7F990F84074DFF07FF4121041C2965D
:100F5B00D297120DE3120AF2120D39120DE37F64D0
:080F6B0012104112058D80F601
:10104100AE071FEE60147C007D78D3ED9400EC9424
:0A1051000040EDED1D70F31C80F06F
:01105B002272
:10105C003120202000313020200031303020003170
:04106C0030303000F0
:05107000C100010B02AC
:030003000208658B
:10086500C0E0C0F0C083C082C0D075D000C000C059
:1008750001C002C003C004C005C006C00790FD004A
:10088500E0540364037003020AD77F0A12104190F3
:10089500FD00E030E0030209F790FE00E0248170DE
:1008A500030209CA24C070030209A624E0700302EA
:1008B500098224F0700302096024F8607924FC6041
:1008C5005124FE60291460030209F70509E5097042
:1008D500020508C3E5089400400BD3E5099420E51B
:1008E50008944E40737508007509000209EC740AF6
:1008F5002509F509E43508F508C39400400BD3E54F
:10090500099420E508944E40067508007509000213
:1009150009EC74642509F509E43508F508C3940064
:10092500400BD3E5099420E508944E400675080070
:100935007509000209EC74E82509F5097403350801
:10094500F508C39400400BD3E5099420E508944EBF
:1009550040067508007509000209ECE509150970DE
:10096500021508C3E5089400400BD3E5099420E57A
:1009750008944E400675084E750920806A74F62560
:1009850009F50974FF3508F508C39400400BD3E554
:10099500099420E508944E400675084E7509208097
:1009A50046749C2509F50974FF3508F508C39400BC
:1009B500400BD3E5099420E508944E400675084E92
:1009C500750920802274182509F50974FC3508F588
:1009D50008C39400400BD3E5099420E508944E40E4
:1009E5000675084E750920120DE3120AF27F5012A2
:1009F500104190FD00E030E103020AD790FF00E0CE
:100A0500248160672490605424F8601B24FA600AEE
:100A1500146003020AD7050A804490FF00E064FDD4
:100A250060F8B200020AD790FF00E064F760F805AD
:100A35000BE50BC394004007E50BD3940340037506
:100A45000B03E50B14600F14600E14600D24036096
:100A550003020AD780478051805B8065150A120D15
:100A6500E3120D397F50121041806790FF00E0645A
:100A75007F60F890FF00E064F760F8150BE50BC3A5
:100A850094004007E50BD394034003750B00E50B79
:100A950014601614601F14602824037035C296C2B2
:100AA500977BFF7A10795C8022D296C2977BFF7A7A
:100AB5001079618016C296D2977BFF7A107966808D
:100AC5000AD296D2977BFF7A10796B7D01E4FF12EB
:100AD5000FEED007D006D005D004D003D002D00148
:0D0AE500D000D0D0D082D083D0F0D0E0324D
:1010200090F800740CF090F880E020E7F990F80058
:101030007438F090F880E020E7F990F8007401F03F
:01104000228D
:100FEE0090F880E020E7F9EFBD01044480800244D0
:100FFE00C090F800F01203D0601790F880E020E760
:10100E00F91203D090F840F0740129F9E43AFA800D
:02101E00E422CA
:07107500020803E8010A0074
:100DE300C3E5099410E5089427E50A501933333312
:100DF30054F8F573AC08AD09E41203167BCB7AF40F
:100E030079327844801933333354F84401F573ACA1
:100E130008AD09E41203167BBA7A9B79EE78421285
:100E230000FE12034F8F778E768D758C74C291C23C
:100E330090E4FBC290E5775401FFEF6004D2928007
:100E430002C292AF77AE76AD75AC74780112057AB3
:100E53008F778E768D758C74D2900BBB20D5E4FB87
:100E6300C290E57330E004D2928002C292E573C36C
:0B0E730013F573D2900BBB08E7D2917F
:010E7E002251
:100D3900E50A541FFFE4FCFDFE7BA07A8CF9F8124A
:100D4900043EE47B20FAF9F8120F73AB07AA067C7C
:100D5900277D101203E9EF2430F5737C037DE8AF9A
:100D690003AE021203E97C007D0A1203E9ED243087
:100D7900F5747C007D64AF03AE021203E97C007D4B
:100D89000A1203E9ED2430F57575762E7C007D0A8B
:100D9900AF03AE021203E97C007D0A1203E9ED24D8
:100DA90030F577AE02AF037C007D0A1203E9ED242A
:100DB90030F578E4F579E573B4300AE574B43005B3
:100DC9007574208005E573B430037573207B007A50
:0A0DD9000079737D027F09020FEE1E
:100AF200E4F57BC3E50994E8E5089403506475774F
:100B020020757620757520757420757320AE08AF38
:100B1200097C007D641203E9EF2430F578AE08AF5A
:100B2200097C007D0A1203E97C007D0A1203E9EDCB
:100B32002430F579AE08AF097C007D0A1203E9ED95
:100B42002430F57AE578B4300AE579B43005757960
:100B5200208009E57864306003020C117578200268
:100B62000C11C3E50994E8E50894035003020C1143
:100B7200AE08AF09E4FCFD7BA07A867901F8120F7A
:100B820073EF2430F573AE08AF097C277D10120392
:100B9200E97C007D0A1203E9ED2430F574AE08AF5A
:100BA200097C037DE81203E97C007D0A1203E9ED6A
:100BB2002430F57575762EAE08AF097C007D64127F
:100BC20003E97C007D0A1203E9ED2430F577AE08D3
:100BD200AF097C007D0A1203E97C007D0A1203E959
:100BE200ED2430F578AE08AF097C007D0A1203E9E6
:100BF200ED2430F579757A6BE573B4300AE574B497
:100C020030057574208005E573B430037573207B5D
:0C0C1200007A0079737D017F06020FEE6E
:100FB700E4FFFEC2950000C293D293C293D293FD81
:100FC700C293D293EF25E0FFEE33FEA294E43342BF
:100FD700070DBD0CEBC293D293C293D293C2930079
:060FE70000D29553060F35
:010FED0022E1
:100C1E00E4F56A120FB7E56A25E02421F8A6060866
:100C2E00A6077F05121041056AE56AC3941940E3D1
:100C3E00E4F56AE56A04FFEFC394195042EF25E02C
:100C4E002421F8E6FC08E6FDE56A25E02421F8E615
:100C5E00FA08E6FBD39DEA9C4022EF25E02421F81A
:100C6E00E6FC08E6FDE56A25E02421F8A60408A6C0
:100C7E0005EF25E02421F8A60208A6030F80B8058B
:100C8E006AE56AB418ADE4F556F555F554F55375A5
:100C9E006A04AB56AA55A954A853C000C001C0029D
:100CAE00C003E56A25E02421F8E6FC08E6FDE4121F
:100CBE000316D003D002D001D00012000D8F568E35
:100CCE00558D548C53056AE56AB415C6AF56AE55AC
:100CDE00AD54AC53E4FBFA798878411202078F5673
:100CEE008E558D548C537FCD7ECC7D4C7C3EAB5639
:100CFE00AA55A954A8531200FEC004C005C006C0D0
:100D0E00077FCD7ECC7D4C7C3FAB5AAA59A958A803
:100D1E00571200FED003D002D001D00012000D8F6A
:0A0D2E005A8E598D588C5712034F4E
:010D38002298
:10058D00300067E4F55BF55CF55DF50A120DE312DD
:10059D000D39120FB7AC06AD07E41203168F698E35
:1005AD00688D678C66AC5BAD5CE4120316AB69AA13
:1005BD0068A967A8661202A460144012AF69AE68FC
:1005CD00AD67AC6612034F8E5B8F5C850A5D7FC293
:1005DD00121041050AE50AC3941F40B0C200855DA3
:1005ED000A120DE3120D39120AF2120C1EAC06ADF1
:1005FD0007E41203168F698E688D678C667F007E07
:10060D00C07DFE7C44AB69AA68A967A8661202A4E6
:10061D004020AF69AE68AD67AC667B007AC079FEED
:10062D0078C412000D8F698E688D678C66755E209B
:10063D00801EAB69AA68A967A8667F007EC07DFE93
:10064D007C441200098F698E688D678C66755E2DEE
:10065D00E50B14601C14602B14603A24037051AF29
:10066D0069AE68AD67AC667BE07A73797578448066
:10067D0034AF69AE68AD67AC667B2F7A1379BE78FF
:10068D00428022AF69AE68AD67AC667B0E7A517958
:10069D001878418010AF69AE68AD67AC667B567A4D
:1006AD007F79BE783F1200FE8F698E688D678C66EC
:1006BD00AF69AE68AD67AC6612034FE47B0AFAF919
:1006CD00F81204C9AC00AD01AE02AF03E47B05FA2C
:1006DD00F9F8D31205695019AF69AE68AD67AC660C
:1006ED00E4FB7920784112000D8F698E688D678C3F
:1006FD0066E4FFFEFDFCAB69AA68A967A866120255
:10070D00A450030207B67F007E407D1C7C46AB697A
:10071D00AA68A967A8661202A440030207B6755F0E
:10072D0020AF69AE68AD67AC6612034FE47BE87A23
:10073D0003F9F81204C9E47B0AFAF9F81204C9EBBB
:10074D002430F560AF69AE68AD67AC6612034FE457
:10075D007B64FAF9F81204C9E47B0AFAF9F8120479
:10076D00C9EB2430F561AF69AE68AD67AC661203B5
:10077D004FE47B0AFAF9F81204C9E47B0AFAF9F896
:10078D001204C9EB2430F56275636DE560B4300A6F
:10079D00E561B430057561208009E5606430600362
:1007AD000208547560200208547F007E407D1C7C39
:1007BD0046AB69AA68A967A8661202A46002500335
:1007CD00020854AF69AE68AD67AC6612034FE47BA7
:1007DD00107A27F9F81204C9EF2430F55F75602EF1
:1007ED00AF69AE68AD67AC6612034FE47BE87A0380
:1007FD00F9F81204C9E47B0AFAF9F81204C9EB24DA
:10080D0030F561AF69AE68AD67AC6612034FE47B3E
:10081D0064FAF9F81204C9E47B0AFAF9F81204C96A
:10082D00EB2430F562AF69AE68AD67AC6612034F6D
:10083D00E47B0AFAF9F81204C9E47B0AFAF9F81212
:10084D0004C9EB2430F563756456E4F565FB7A0055
:08085D00795E7D02FF020FEE3F
:100006000203BBE86480F8E933E83360110460F06A
:10001600ED33EC337009E8FCE9FDEAFEEBFF220460
:1000260060DED3EB9FEA9EE99DE8C2E78CF0C2F75B
:1000360095F0400CE8CCF8E9CDF9EACEFAEBCFFB27
:1000460012038685D0F05804700320D5B3E80470F7
:10005600075002B2D50203C592D5EC0460F7E4CC92
:10006600C0E0C398F8603B94186008400DD0E0FBF0
:1000760002039DE4FBFAC9FC8028E830E406E4C9E3
:10008600FBE4CAFCE830E305E4C9CACBFCE8540744
:100096006010F8C3E913F9EA13FAEB13FBEC13FC4F
:1000A600D8F130F52FC3E49CFCEF9BFFEE9AFEEDF2
:1000B60099FDD0E0FBEF4E4D4C701222DB0302039C
:1000C600C2EC2CFCEF33FFEE33FEED33FDED30E7F3
:1000D600EB02039DEF2BFFEE3AFEED39FDD0E0FB80
:1000E60050130BBB00030203C5ED13FDEE13FEEF29
:0800F60013FFEC13FC02039D53
:1000FE00EC4D6011E8497017ED33EC3304600DE4FC
:10010E00FCFFFEFD22E933E8330470F80203BB1254
:10011E00038658046009E4CC248150062850090255
:10012E0003C52840030203C2C0E0EB4A7044B98005
:10013E0006D0E0FB0203B1EF4E701CBD8008EBFF52
:10014E00EAFEE9FD80EBE98DF0A4FEE5F00201E7A1
:10015E00E9CDF9EAFEEBFFEF89F0A4FCE5F0CE89DC
:10016E00F0A42EFFE435F0CD89F0A42DFEE435F099
:10017E008067EF4E7005BD80D780C3EF8BF0A4ACC7
:10018E00F0EE8BF0A42CFCE435F0F8EF8AF0A42C02
:10019E00E5F038FCE433CB8DF0A42CFCE5F03BF815
:1001AE00EE8AF0A42CFCE5F038F8E433CF89F0A405
:1001BE002CFCE5F038CF3400CE89F0A42FFFE5F00B
:1001CE003EFEE433C98DF0A42EFEE5F039CD8AF063
:1001DE00A42FFFE5F03EFEE43DFD33D0E0FB5007DB
:1001EE000BBB000F0203C5EC2CFCEF33FFEE33FE0E
:0601FE00ED33FD02039D3C
:100204000203C5EC5D046005E8590470030203BBF6
:10021400120386580460F6EC4860F2EC7004FDFEAC
:10022400FF22C860DB2481C85009C39860025006CD
:100234000203C29850CAF582E9294B4A7005AB8281
:100244000203B175F0007C1A7880C3EF9BEE9AED3F
:1002540099400DC3EF9BFFEE9AFEED99FDE842F045
:10026400DC23ACF0D0E0FFD0E0FED0E0FDAB822098
:10027400E7101BEB60BAEC2CFCEF33FFEE33FEED22
:1002840033FD02039DE803F830E705C0F075F00084
:10029400EF2FFFEE33FEED33FD40B830E7C280AA06
:1002A40074F8CC6480CCC86480C8F582046043C30D
:1002B400EB9FF5F0EA9E42F0E99D42F0E89C45F0A0
:1002C40060305018E5825FFFE582F42B5582FB50C5
:1002D400210ABA001D09B90019088016E5825BFBE2
:1002E400E582F42F5582FF50090EBE00050DBD00B6
:1002F400010CC3EB9FF5F0EA9E42F0E99D42F0E861
:0D0304009C45F06007CC4820E701B3EC22D7
:1003110075F020800E75F010800575F0087D007E67
:10032100007F003392D530D50312055BEC334010CA
:10033100EF33FFEE33FEED33FDEC33FCD5F0ED2270
:0E034100E5F0247EA2D513CC92E7CDCEFF22AC
:10034F00EDD2E7CD33EC3392D524814006E4FFFEA6
:10035F00FDFC22FCE4CFCECDCC24E0501174FF8005
:10036F00EDC3CC13CCCD13CDCE13CECF13CF0470A2
:07037F00F030D5DE02055B42
:10038600E9D2E7C933E833F892D5EDD2E7CD33ECBD
:0703960033FC5002B2D52236
:10039D00EC30E7100FBF000C0EBE00080DBD0004C1
:1003AD000BEB6014A2D5EB13FCED92E7FD2274FF6D
:1003BD00FCFDFEFF22E480F8A2D574FF13FC7D80C6
:0303CD00E480EFDA
:100E8B00020F0BE493A3F8E493A34003F68001F263
:100E9B0008DFF48029E493A3F85407240CC8C33368
:100EAB00C4540F4420C8834004F456800146F6DF37
:100EBB00E4800B0102040810204080901070E47E47
:100ECB00019360BCA3FF543F30E509541FFEE4932C
:100EDB00A360010ECF54C025E060A840B8E493A3F3
:100EEB00FAE493A3F8E493A3C8C582C8CAC583CA1E
:100EFB00F0A3C8C582C8CAC583CADFE9DEE780BED6
:01107C000073
:1003D000BB010689828A83E0225002E722BBFE022B
:0903E000E32289828A83E493225E
:1003E900BC000BBE0029EF8DF084FFADF022E4CCF8
:1003F900F875F008EF2FFFEE33FEEC33FCEE9DECC1
:10040900984005FCEE9DFE0FD5F0E9E4CEFD22ED06
:10041900F8F5F0EE8420D21CFEADF075F008EF2F50
:10042900FFED33FD4007985006D5F0F222C398FD41
:050439000FD5F0EA22DE
:10043E00E88FF0A4CC8BF0A42CFCE98EF0A42CFC5D
:10044E008AF0EDA42CFCEA8EF0A4CDA8F08BF0A4DB
:10045E002DCC3825F0FDE98FF0A42CCD35F0FCEB3A
:10046E008EF0A4FEA9F0EB8FF0A4CFC5F02ECD39FF
:0F047E00FEE43CFCEAA42DCE35F0FDE43CFC226C
:10048D0075F008758200EF2FFFEE33FECD33CDCC26
:10049D0033CCC58233C5829BED9AEC99E5829840A9
:1004AD000CF582EE9BFEED9AFDEC99FC0FD5F0D686
:1004BD00E4CEFBE4CDFAE4CCF9A88222B800C1B9B0
:1004CD000059BA002DEC8BF084CFCECDFCE5F0CBEE
:1004DD00F97818EF2FFFEE33FEED33FDEC33FCEB27
:1004ED0033FB10D703994004EB99FB0FD8E5E4F9E2
:1004FD00FA227818EF2FFFEE33FEED33FDEC33FCCF
:10050D00C933C910D7059BE99A4007EC9BFCE99AC2
:10051D00F90FD8E0E4C9FAE4CCFB2275F010EF2F07
:10052D00FFEE33FEED33FDCC33CCC833C810D70707
:10053D009BEC9AE899400AED9BFDEC9AFCE899F842
:0E054D000FD5F0DAE4CDFBE4CCFAE4C8F922D5
:100F7300C2D5E830E70FB2D5E4C39BFBE49AFAE4A9
:100F830099F9E498F8EC30E717B2D5120FA91204D7
:100F9300C9E4C39BFBE49AFAE499F9E498F8800363
:100FA3001204C930D50DE4C39FFFE49EFEE49DFD0A
:040FB300E49CFC229C
:0E055B00C3E49FFFE49EFEE49DFDE49CFC22B1
:10056900EB9FF5F0EA9E42F0E99D42F0E89C45F0E8
:01057900225F
:10057A00E8600FECC313FCED13FDEE13FEEF13FF5F
:03058A00D8F12283
:00000001FF
